{
  "_format": "hh-sol-artifact-1",
  "contractName": "Rebalancer",
  "sourceName": "contracts/Rebalancer.sol",
  "abi": [
    {
      "inputs": [
        {
          "internalType": "address",
          "name": "_router",
          "type": "address"
        },
        {
          "internalType": "uint256",
          "name": "_maxGasFee",
          "type": "uint256"
        },
        {
          "internalType": "uint256",
          "name": "_positionId",
          "type": "uint256"
        },
        {
          "internalType": "address",
          "name": "_rebalancer",
          "type": "address"
        },
        {
          "internalType": "address",
          "name": "_voter",
          "type": "address"
        }
      ],
      "stateMutability": "nonpayable",
      "type": "constructor"
    },
    {
      "inputs": [],
      "name": "InsufficientLiquidity",
      "type": "error"
    },
    {
      "inputs": [],
      "name": "InvalidSwapPath",
      "type": "error"
    },
    {
      "anonymous": false,
      "inputs": [
        {
          "indexed": false,
          "internalType": "uint256",
          "name": "liqudity",
          "type": "uint256"
        },
        {
          "indexed": false,
          "internalType": "uint256",
          "name": "amount0",
          "type": "uint256"
        },
        {
          "indexed": false,
          "internalType": "uint256",
          "name": "amount1",
          "type": "uint256"
        },
        {
          "indexed": false,
          "internalType": "uint256",
          "name": "positionId",
          "type": "uint256"
        }
      ],
      "name": "RebalancedV3",
      "type": "event"
    },
    {
      "anonymous": false,
      "inputs": [
        {
          "indexed": true,
          "internalType": "bytes32",
          "name": "role",
          "type": "bytes32"
        },
        {
          "indexed": true,
          "internalType": "bytes32",
          "name": "previousAdminRole",
          "type": "bytes32"
        },
        {
          "indexed": true,
          "internalType": "bytes32",
          "name": "newAdminRole",
          "type": "bytes32"
        }
      ],
      "name": "RoleAdminChanged",
      "type": "event"
    },
    {
      "anonymous": false,
      "inputs": [
        {
          "indexed": true,
          "internalType": "bytes32",
          "name": "role",
          "type": "bytes32"
        },
        {
          "indexed": true,
          "internalType": "address",
          "name": "account",
          "type": "address"
        },
        {
          "indexed": true,
          "internalType": "address",
          "name": "sender",
          "type": "address"
        }
      ],
      "name": "RoleGranted",
      "type": "event"
    },
    {
      "anonymous": false,
      "inputs": [
        {
          "indexed": true,
          "internalType": "bytes32",
          "name": "role",
          "type": "bytes32"
        },
        {
          "indexed": true,
          "internalType": "address",
          "name": "account",
          "type": "address"
        },
        {
          "indexed": true,
          "internalType": "address",
          "name": "sender",
          "type": "address"
        }
      ],
      "name": "RoleRevoked",
      "type": "event"
    },
    {
      "anonymous": false,
      "inputs": [
        {
          "indexed": false,
          "internalType": "address",
          "name": "router",
          "type": "address"
        },
        {
          "indexed": false,
          "internalType": "bool",
          "name": "added",
          "type": "bool"
        }
      ],
      "name": "RouterUpdated",
      "type": "event"
    },
    {
      "inputs": [],
      "name": "DEFAULT_ADMIN_ROLE",
      "outputs": [
        {
          "internalType": "bytes32",
          "name": "",
          "type": "bytes32"
        }
      ],
      "stateMutability": "view",
      "type": "function"
    },
    {
      "inputs": [],
      "name": "REBALANCER_ROLE",
      "outputs": [
        {
          "internalType": "bytes32",
          "name": "",
          "type": "bytes32"
        }
      ],
      "stateMutability": "view",
      "type": "function"
    },
    {
      "inputs": [],
      "name": "adminAddress",
      "outputs": [
        {
          "internalType": "address",
          "name": "",
          "type": "address"
        }
      ],
      "stateMutability": "view",
      "type": "function"
    },
    {
      "inputs": [
        {
          "internalType": "bytes32",
          "name": "role",
          "type": "bytes32"
        }
      ],
      "name": "getRoleAdmin",
      "outputs": [
        {
          "internalType": "bytes32",
          "name": "",
          "type": "bytes32"
        }
      ],
      "stateMutability": "view",
      "type": "function"
    },
    {
      "inputs": [
        {
          "internalType": "bytes32",
          "name": "role",
          "type": "bytes32"
        },
        {
          "internalType": "address",
          "name": "account",
          "type": "address"
        }
      ],
      "name": "grantRole",
      "outputs": [],
      "stateMutability": "nonpayable",
      "type": "function"
    },
    {
      "inputs": [
        {
          "internalType": "bytes32",
          "name": "role",
          "type": "bytes32"
        },
        {
          "internalType": "address",
          "name": "account",
          "type": "address"
        }
      ],
      "name": "hasRole",
      "outputs": [
        {
          "internalType": "bool",
          "name": "",
          "type": "bool"
        }
      ],
      "stateMutability": "view",
      "type": "function"
    },
    {
      "inputs": [],
      "name": "maxSlippage",
      "outputs": [
        {
          "internalType": "uint16",
          "name": "",
          "type": "uint16"
        }
      ],
      "stateMutability": "view",
      "type": "function"
    },
    {
      "inputs": [
        {
          "internalType": "address",
          "name": "operator",
          "type": "address"
        },
        {
          "internalType": "address",
          "name": "from",
          "type": "address"
        },
        {
          "internalType": "uint256",
          "name": "tokenId",
          "type": "uint256"
        },
        {
          "internalType": "bytes",
          "name": "data",
          "type": "bytes"
        }
      ],
      "name": "onERC721Received",
      "outputs": [
        {
          "internalType": "bytes4",
          "name": "",
          "type": "bytes4"
        }
      ],
      "stateMutability": "pure",
      "type": "function"
    },
    {
      "inputs": [],
      "name": "positionId",
      "outputs": [
        {
          "internalType": "uint256",
          "name": "",
          "type": "uint256"
        }
      ],
      "stateMutability": "view",
      "type": "function"
    },
    {
      "inputs": [
        {
          "internalType": "address",
          "name": "router",
          "type": "address"
        },
        {
          "internalType": "address",
          "name": "tokenA",
          "type": "address"
        },
        {
          "internalType": "address",
          "name": "tokenB",
          "type": "address"
        },
        {
          "internalType": "int24",
          "name": "tickSpacing",
          "type": "int24"
        },
        {
          "internalType": "int24",
          "name": "newTickLower",
          "type": "int24"
        },
        {
          "internalType": "int24",
          "name": "newTickUpper",
          "type": "int24"
        },
        {
          "internalType": "uint160",
          "name": "sqrtPriceLimitX96",
          "type": "uint160"
        },
        {
          "internalType": "uint256",
          "name": "amountOutMin",
          "type": "uint256"
        },
        {
          "internalType": "address",
          "name": "_v3PositionManager",
          "type": "address"
        },
        {
          "internalType": "address",
          "name": "pool",
          "type": "address"
        },
        {
          "internalType": "bool",
          "name": "increaseLiquidity",
          "type": "bool"
        }
      ],
      "name": "rebalancerV3",
      "outputs": [],
      "stateMutability": "nonpayable",
      "type": "function"
    },
    {
      "inputs": [
        {
          "internalType": "address",
          "name": "_route",
          "type": "address"
        }
      ],
      "name": "removeRouter",
      "outputs": [],
      "stateMutability": "nonpayable",
      "type": "function"
    },
    {
      "inputs": [
        {
          "internalType": "bytes32",
          "name": "role",
          "type": "bytes32"
        },
        {
          "internalType": "address",
          "name": "account",
          "type": "address"
        }
      ],
      "name": "renounceRole",
      "outputs": [],
      "stateMutability": "nonpayable",
      "type": "function"
    },
    {
      "inputs": [
        {
          "internalType": "bytes32",
          "name": "role",
          "type": "bytes32"
        },
        {
          "internalType": "address",
          "name": "account",
          "type": "address"
        }
      ],
      "name": "revokeRole",
      "outputs": [],
      "stateMutability": "nonpayable",
      "type": "function"
    },
    {
      "inputs": [
        {
          "internalType": "address",
          "name": "",
          "type": "address"
        }
      ],
      "name": "routers",
      "outputs": [
        {
          "internalType": "bool",
          "name": "",
          "type": "bool"
        }
      ],
      "stateMutability": "view",
      "type": "function"
    },
    {
      "inputs": [
        {
          "internalType": "uint256",
          "name": "_gasFee",
          "type": "uint256"
        }
      ],
      "name": "setMaxGasFee",
      "outputs": [],
      "stateMutability": "nonpayable",
      "type": "function"
    },
    {
      "inputs": [
        {
          "internalType": "uint16",
          "name": "_slippage",
          "type": "uint16"
        }
      ],
      "name": "setMaxSlippage",
      "outputs": [],
      "stateMutability": "nonpayable",
      "type": "function"
    },
    {
      "inputs": [
        {
          "internalType": "uint256",
          "name": "_positionId",
          "type": "uint256"
        }
      ],
      "name": "setPositionId",
      "outputs": [],
      "stateMutability": "nonpayable",
      "type": "function"
    },
    {
      "inputs": [
        {
          "internalType": "address",
          "name": "_router",
          "type": "address"
        }
      ],
      "name": "setRouter",
      "outputs": [],
      "stateMutability": "nonpayable",
      "type": "function"
    },
    {
      "inputs": [
        {
          "internalType": "bytes4",
          "name": "interfaceId",
          "type": "bytes4"
        }
      ],
      "name": "supportsInterface",
      "outputs": [
        {
          "internalType": "bool",
          "name": "",
          "type": "bool"
        }
      ],
      "stateMutability": "view",
      "type": "function"
    },
    {
      "inputs": [
        {
          "internalType": "address",
          "name": "_v3PositionManager",
          "type": "address"
        },
        {
          "internalType": "address",
          "name": "newOwner",
          "type": "address"
        }
      ],
      "name": "tranferPositionOwnership",
      "outputs": [],
      "stateMutability": "nonpayable",
      "type": "function"
    },
    {
      "inputs": [],
      "name": "voter",
      "outputs": [
        {
          "internalType": "address",
          "name": "",
          "type": "address"
        }
      ],
      "stateMutability": "view",
      "type": "function"
    },
    {
      "inputs": [
        {
          "internalType": "address",
          "name": "token",
          "type": "address"
        },
        {
          "internalType": "uint256",
          "name": "amount",
          "type": "uint256"
        },
        {
          "internalType": "address",
          "name": "to",
          "type": "address"
        }
      ],
      "name": "withdrawTokens",
      "outputs": [],
      "stateMutability": "nonpayable",
      "type": "function"
    }
  ],
  "bytecode": "0x60a034620001ba57601f62002c9238819003918201601f191683019291906001600160401b03841183851017620001bf578160a09284926040968752833981010312620001ba576200005181620001d5565b9060208082015184830151916200007960806200007160608701620001d5565b9501620001d5565b60018055606461ffff19600454161760045560018060a01b039384600097168752600283528787209360ff1994600186825416179055600355600555608052848052848152858520338652815260ff86862054161562000183575b7fccc64574297998b6c3edf6078cc5e01268465ff116954e3af02ff3a70a730f4692838652858252868620941693848652815260ff86862054161562000149575b8551612a879081620001eb8239608051818181610863015281816108a9015281816109d501528181610a9701526117030152f35b828552848152858520908486525260018585209182541617905560008051602062002c7283398151915233938551a4388080808062000115565b848052848152858520338652815285852060018382541617905533338660008051602062002c72833981519152818a51a4620000d4565b600080fd5b634e487b7160e01b600052604160045260246000fd5b51906001600160a01b0382168203620001ba5756fe608080604052600436101561001357600080fd5b600090813560e01c90816301ffc9a714611a7e575080630f3ccc1a146119f2578063150b7a0214611987578063248a9ca31461195b5780632f2ff15d146118a857806336568abe1461180757806337f1779c14611797578063405054401461172757806346c96aac146116e3578063490b48f8146116a85780636ae0b1541461164e57806371640de31461163057806380dd9a1f146115f35780638aabb4601461067b5780638c04166f1461065957806391d148541461060d5780639bc5c50914610370578063a217fddf14610354578063c0d786551461026b578063c7f9d9751461017e578063d547741f1461013c5763fc6f94681461011357600080fd5b3461013957806003193601126101395760206001600160a01b0360065416604051908152f35b80fd5b50346101395760403660031901126101395761017960043561015c611ae9565b90808452836020526101746001604086200154611ca0565b611e94565b604051f35b503461013957604036600319011261013957610198611ad3565b6101a0611ae9565b6101a8611b15565b6001600160a01b038091169081156102265783921690600554823b156102215760648492836040519586948593632142170760e11b8552306004860152602485015260448401525af1801561021657610202575b50604051f35b61020b90611dde565b6101395780386101fc565b6040513d84823e3d90fd5b505050fd5b60405162461bcd60e51b815260206004820152601760248201527f4e6577206f776e65722063616e2774206265207a65726f0000000000000000006044820152606490fd5b5034610139576020366003190112610139576001600160a01b0361028d611ad3565b610295611b15565b16801561030f57808252600260205260ff6040832054166102ca57815260026020526040808220805460ff1916600117905551f35b60405162461bcd60e51b815260206004820152601560248201527f526f7574657220616c72656164792065786973747300000000000000000000006044820152606490fd5b60405162461bcd60e51b815260206004820152601c60248201527f526f7574657220616464726573732063616e2774206265207a65726f000000006044820152606490fd5b5034610139578060031936011261013957602090604051908152f35b50346101395760603660031901126101395761038a611ad3565b906024803590610398611aff565b6103a0611b15565b6001600160a01b038095169485156105c95781161561058557821561054157604051908480836103f86020978883019563a9059cbb60e01b8752888401602090939291936001600160a01b0360408201951681520152565b039261040c601f1994858101875286611e46565b6040519461041986611df2565b8786527f5361666545524332303a206c6f772d6c6576656c2063616c6c206661696c6564888701525190828a5af13d15610530573d9667ffffffffffffffff881161051b57859697610479610486969760405195601f8401160185611e46565b83523d888885013e612092565b80518381159182156104f8575b50509050156104a25782604051f35b90602a6084926040519262461bcd60e51b845260048401528201527f5361666545524332303a204552433230206f7065726174696f6e20646964206e6044820152691bdd081cdd58d8d9595960b21b6064820152fd5b8380929350010312610517578261050f9101612085565b808338610493565b8380fd5b84634e487b7160e01b60005260416004526000fd5b610486939495969150606091612092565b60405162461bcd60e51b8152602060048201526014818401527f416d6f756e742063616e2774206265207a65726f0000000000000000000000006044820152606490fd5b60405162461bcd60e51b815260206004820152601f818401527f526563697069656e7420616464726573732063616e2774206265207a65726f006044820152606490fd5b60405162461bcd60e51b815260206004820152601b818501527f546f6b656e20616464726573732063616e2774206265207a65726f00000000006044820152606490fd5b5034610139576040366003190112610139576001600160a01b036040610631611ae9565b92600435815280602052209116600052602052602060ff604060002054166040519015158152f35b5034610139578060031936011261013957602061ffff60045416604051908152f35b50346101395761016036600319011261013957610696611ad3565b9061069f611ae9565b916106a8611aff565b60643560020b606435036115ef5760843560020b608435036115ef5760a43560020b60a435036115ef576001600160a01b0360c4351660c435036115ef5761010435936001600160a01b0385168503610517576001600160a01b0361012435166101243503610517576101443515156101443503610517576002600154146115aa5760026001557fccc64574297998b6c3edf6078cc5e01268465ff116954e3af02ff3a70a730f468452836020526040842033855260205260ff604085205416156113ca576003543a11611385576001600160a01b0383168452600260205261079760ff604086205416612039565b60055460405163133f757160e31b815260048101829052610140816024816001600160a01b038b165afa908115610fe75786916112e7575b506001600160801b038082161161129257600119421161127e57604051908160a081011067ffffffffffffffff60a08401111761126a576001600160801b039060a083016040528383521660208201528560408201528560608201526001420160808201526040516302045be960e41b81526001600160a01b03610124351660048201526020816024816001600160a01b037f0000000000000000000000000000000000000000000000000000000000000000165afa90811561114557879161122c575b50604051634256f5e760e01b81526020816004817f00000000000000000000000000000000000000000000000000000000000000006001600160a01b03165afa9081156112215788916111e3575b50604051916108ef83611df2565b60018352602036818501376001600160a01b0361090b84612349565b911690526040519061091c82611df2565b6001825261092c60208301612356565b60405161093881611df2565b600181526020368183013761094c83612349565b5261095682612349565b506001600160a01b0361097161096b84612349565b51612349565b911690526040519061098282611df2565b6001825261099260208301612356565b60405161099e81611df2565b60018152602036818301376109b283612349565b526109bc82612349565b50846109ca61096b84612349565b526001600160a01b037f0000000000000000000000000000000000000000000000000000000000000000163b156111df57604051633aacdfbb60e21b81526060600482015292899284929091610a24906064850190612373565b600319848203016024850152815180825260208201916020808360051b83010194019287915b8383106111ac575050505050600319838203016044840152815180825260208201916020808360051b83010194019286915b83831061115057505050505081900381836001600160a01b037f0000000000000000000000000000000000000000000000000000000000000000165af1801561114557611132575b50608060405191630624e65f60e11b8352805160048401526001600160801b03602082015116602484015260408101516044840152606081015160648401520151608482015260408160a481896001600160a01b038c165af18015610fe757611114575b506040519081608081011067ffffffffffffffff6080840111176110fe576080820160405281526001600160801b036020820130815281604084018181526001600160a01b0360608601938385526040519663fc6f786560e01b8852516004880152511660248601525116604484015251166064820152604081608481886001600160a01b038b165af190811561102457859086926110cc575b5015908115916110c2575b501561107d57610bdd8282612980565b90159081611074575b5061102f576040516370a0823160e01b81523060048201526020816024816001600160a01b0386165afa908115611024578591610ff2575b506040516370a0823160e01b81523060048201526020816024816001600160a01b0388165afa908115610fe757908592918791610fa9575b5090610c66916101243591612182565b50919086811315610f7c57610c88925060c4359060e4359060643587876123c6565b610cb9610c958383612980565b6101443591600554916001600160a01b038a169160a4356084356064358a8a61251a565b94928094929194610f73575b505b610cd18383612980565b67016345785d8a0000821080610f67575b610f14578791610cf6916101243591612182565b50919089811315610ee757610d18925060c4359060e4359060643588886123c6565b610d228383612980565b60055490610d76604051610d3581611df2565b6001600160a01b03871681526001600160a01b03881660208201528c6001600160a01b0360405191610d6683611df2565b878352856020840152169161286c565b6001194211610ed15760c460609260a0928d9560405192610d9684611e0e565b835260208301908152604080840192835260008785018181526080860182815242600101988701988952925163219f5d1760e01b815295516004870152925160248601529251604485015290516064840152516084830152925160a482015293849283916001600160a01b03165af1918215610ec557600080928194610e78575b506001600160801b0381166001600160801b03036001600160801b03831611610e645791610e57916001600160801b0380610e5d96951691160196611f3b565b95611f3b565b9392610cc7565b634e487b7160e01b8a52601160045260248afd5b93509091506060833d606011610ebd575b81610e9660609383611e46565b810103126101395750610ea882612506565b90604060208401519301519192919238610e17565b3d9150610e89565b6040513d6000823e3d90fd5b634e487b7160e01b600052601160045260246000fd5b50888213610ef7575b5050610d18565b610f0d9160c4359060e4359060643587896123c6565b3886610ef0565b887fed6d1c954992297a309192f4088ad1841e40206f29695dd764f7173826504022608085898b600554916001600160801b0360405194168452602084015260408301526060820152a160018055604051f35b50620186a08110610ce2565b60055538610cc5565b50858213610f8c575b5050610c88565b610fa29160c4359060e4359060643586886123c6565b3883610f85565b919250506020813d602011610fdf575b81610fc660209383611e46565b81010312610fda5751849190610c66610c56565b600080fd5b3d9150610fb9565b6040513d88823e3d90fd5b90506020813d60201161101c575b8161100d60209383611e46565b81010312610fda575138610c1e565b3d9150611000565b6040513d87823e3d90fd5b60405162461bcd60e51b815260206004820152601160248201527f4e6f20746f6b656e7320746f20737761700000000000000000000000000000006044820152606490fd5b90501538610be6565b60405162461bcd60e51b815260206004820152601360248201527f4e6f20746f6b656e7320636f6c6c6563746564000000000000000000000000006044820152606490fd5b9050151538610bcd565b90506110f0915060403d6040116110f7575b6110e88183611e46565b8101906123b0565b9038610bc2565b503d6110de565b634e487b7160e01b600052604160045260246000fd5b61112c9060403d6040116110f7576110e88183611e46565b50610b28565b61113e90969196611dde565b9438610ac4565b6040513d89823e3d90fd5b92955092955092601f198282030183528c86519160208084519283815201930191905b808210611194575050506020806001929701930193018c9593879592610a7c565b90919260208060019286518152019401920190611173565b92959750929550926020806111cd600193601f198682030187528951612373565b9701930193018795938e979592610a4a565b8880fd5b90506020813d602011611219575b816111fe60209383611e46565b810103126112155761120f90612335565b386108e1565b8780fd5b3d91506111f1565b6040513d8a823e3d90fd5b90506020813d602011611262575b8161124760209383611e46565b8101031261125e5761125890612335565b38610893565b8680fd5b3d915061123a565b634e487b7160e01b87526041600452602487fd5b634e487b7160e01b86526011600452602486fd5b60405162461bcd60e51b815260206004820152602760248201527f53616665436173743a2076616c756520646f65736e27742066697420696e20316044820152663238206269747360c81b6064820152608490fd5b9050610140813d6101401161137d575b816113056101409383611e46565b810103126113795761131681612335565b5061132360208201612335565b5061133060408201612123565b5061133d60608201612123565b5061134a60808201612123565b5061137261012061135d60a08401612506565b9261136b6101008201612506565b5001612506565b50386107cf565b8580fd5b3d91506112f7565b60405162461bcd60e51b815260206004820152601260248201527f47617320707269636520746f6f206869676800000000000000000000000000006044820152606490fd5b836113d433611f6e565b604051917fccc64574297998b6c3edf6078cc5e01268465ff116954e3af02ff3a70a730f4661140284611e2a565b6042845260208401916060368437845115611596576030835384516001101561159657607860218601536041905b6001821161152a5750506114e65760486114bb926114ca926114e29560405195869376020b1b1b2b9b9a1b7b73a3937b61d1030b1b1b7bab73a1604d1b6020860152611486815180926020603789019101611da9565b8401917f206973206d697373696e6720726f6c6520000000000000000000000000000000603784015251809386840190611da9565b01036028810184520182611e46565b60405162461bcd60e51b815291829160048301611e68565b0390fd5b606460405162461bcd60e51b815260206004820152602060248201527f537472696e67733a20686578206c656e67746820696e73756666696369656e746044820152fd5b9091600f81166010811015611582576f181899199a1a9b1b9c1cb0b131b232b360811b901a6115598488611f47565b5360041c91801561156e576000190190611430565b634e487b7160e01b82526011600452602482fd5b634e487b7160e01b83526032600452602483fd5b634e487b7160e01b81526032600452602490fd5b60405162461bcd60e51b815260206004820152601f60248201527f5265656e7472616e637947756172643a207265656e7472616e742063616c6c006044820152606490fd5b8280fd5b50346101395760203660031901126101395760ff60406020926001600160a01b0361161c611ad3565b168152600284522054166040519015158152f35b50346101395780600319360112610139576020600554604051908152f35b5034610139576020366003190112610139576001600160a01b03611670611ad3565b611678611b15565b16808252600260205261169160ff604084205416612039565b815260026020526040808220805460ff1916905551f35b503461013957806003193601126101395760206040517fccc64574297998b6c3edf6078cc5e01268465ff116954e3af02ff3a70a730f468152f35b503461013957806003193601126101395760206040516001600160a01b037f0000000000000000000000000000000000000000000000000000000000000000168152f35b503461013957602036600319011261013957600435611744611b15565b801561175257600355604051f35b60405162461bcd60e51b815260206004820152601560248201527f6d6178206665652063616e2774206265207a65726f00000000000000000000006044820152606490fd5b5034610139576020366003190112610139576004356117b4611b15565b80156117c257600555604051f35b60405162461bcd60e51b815260206004820152601960248201527f506f736974696f6e2049442063616e2774206265207a65726f000000000000006044820152606490fd5b503461013957604036600319011261013957611821611ae9565b336001600160a01b0382160361183d5761017990600435611e94565b60405162461bcd60e51b815260206004820152602f60248201527f416363657373436f6e74726f6c3a2063616e206f6e6c792072656e6f756e636560448201527f20726f6c657320666f722073656c6600000000000000000000000000000000006064820152608490fd5b5034610139576040366003190112610139576004356118c5611ae9565b818352826020526118dc6001604085200154611ca0565b818352826020526001600160a01b036040842091169081845260205260ff6040842054161561190c575b82604051f35b818352826020526040832081845260205260408320600160ff1982541617905533917f2f8788117e7eff1d82e926ec794901d17c78024a50270940304540a733656f0d84604051a43880611906565b503461013957602036600319011261013957600160406020926004358152808452200154604051908152f35b5034610139576080366003190112610139576119a1611ad3565b506119aa611ae9565b5060643567ffffffffffffffff8082116115ef57366023830112156115ef5781600401359081116115ef573691016024011161013957604051630a85bd0160e11b8152602090f35b50346101395760203660031901126101395760043561ffff8116809103611a7a57611a1b611b15565b6103e88111611a355761ffff196004541617600455604051f35b60405162461bcd60e51b815260206004820152601060248201527f4d61782031302520736c697070616765000000000000000000000000000000006044820152606490fd5b5080fd5b905034611a7a576020366003190112611a7a5760043563ffffffff60e01b81168091036115ef5760209250637965db0b60e01b8114908115611ac2575b5015158152f35b6301ffc9a760e01b14905038611abb565b600435906001600160a01b0382168203610fda57565b602435906001600160a01b0382168203610fda57565b604435906001600160a01b0382168203610fda57565b3360009081527fad3228b676f7d3cd4284a5443f17f1962b36e491b30a40b2405849e597ba5fb5602090815260408083205490929060ff1615611b5757505050565b611b6033611f6e565b83519082611b6d83611e2a565b6042835284830193606036863783511561159657603085538351906001918210156115965790607860218601536041915b818311611c5a57505050611c1857611486938593611c0293611bf36048946114e29951988576020b1b1b2b9b9a1b7b73a3937b61d1030b1b1b7bab73a1604d1b8b978801528251928391603789019101611da9565b01036028810185520183611e46565b5162461bcd60e51b815291829160048301611e68565b60648486519062461bcd60e51b825280600483015260248201527f537472696e67733a20686578206c656e67746820696e73756666696369656e746044820152fd5b909192600f81166010811015611582576f181899199a1a9b1b9c1cb0b131b232b360811b901a611c8a8588611f47565b5360041c92801561156e57600019019190611b9e565b6000818152602090808252604092838220338352835260ff848320541615611cc85750505050565b611cd133611f6e565b845191611cdd83611e2a565b6042835284830193606036863783511561159657603085538351906001918210156115965790607860218601536041915b818311611d6357505050611c1857611486938593611c0293611bf36048946114e29951988576020b1b1b2b9b9a1b7b73a3937b61d1030b1b1b7bab73a1604d1b8b978801528251928391603789019101611da9565b909192600f81166010811015611582576f181899199a1a9b1b9c1cb0b131b232b360811b901a611d938588611f47565b5360041c92801561156e57600019019190611d0e565b918091926000905b828210611dc9575011611dc2575050565b6000910152565b91508060209183015181860152018291611db1565b67ffffffffffffffff81116110fe57604052565b6040810190811067ffffffffffffffff8211176110fe57604052565b60c0810190811067ffffffffffffffff8211176110fe57604052565b6080810190811067ffffffffffffffff8211176110fe57604052565b90601f8019910116810190811067ffffffffffffffff8211176110fe57604052565b60409160208252611e888151809281602086015260208686019101611da9565b601f01601f1916010190565b90600091808352826020526001600160a01b036040842092169182845260205260ff604084205416611ec557505050565b80835282602052604083208284526020526040832060ff1981541690557ff6391f5c32d9c69d2a47ea670b442974b53935d1edc7fd64eb21e047a839171b3393604051a4565b670de0b6b3a7640000908060001904821181151516610ed1570290565b8060001904821181151516610ed1570290565b81198111610ed1570190565b908151811015611f58570160200190565b634e487b7160e01b600052603260045260246000fd5b604051906060820182811067ffffffffffffffff8211176110fe57604052602a8252602082016040368237825115611f5857603090538151600190811015611f5857607860218401536029905b808211611fcb5750506114e65790565b9091600f81166010811015612024576f181899199a1a9b1b9c1cb0b131b232b360811b901a611ffa8486611f47565b5360041c91801561200f576000190190611fbb565b60246000634e487b7160e01b81526011600452fd5b60246000634e487b7160e01b81526032600452fd5b1561204057565b60405162461bcd60e51b815260206004820152601460248201527f526f7574657220646f65736e27742065786973740000000000000000000000006044820152606490fd5b51908115158203610fda57565b919290156120f457508151156120a6575090565b3b156120af5790565b60405162461bcd60e51b815260206004820152601d60248201527f416464726573733a2063616c6c20746f206e6f6e2d636f6e74726163740000006044820152606490fd5b8251909150156121075750805190602001fd5b60405162461bcd60e51b81529081906114e29060048301611e68565b51908160020b8203610fda57565b519061ffff82168203610fda57565b600082128015600160ff1b8401831216610ed157827f7fffffffffffffffffffffffffffffffffffffffffffffffffffffffffffffff01821316610ed1570390565b9291604051633850c7bd60e01b815260e0816004816001600160a01b038096165afa908115610ec557600091612293575b5061221f6121d26121cd6121ec95946121fa941680611f28565b611f0b565b60c01c9561220187670de0b6b3a764000080978194611f0b565b0495620f4240958691611f0b565b0495611f28565b0461221961220f8583611f3b565b60011c8092612140565b93612140565b600083131561226157505061223390611f0b565b831561224b57836122449104611f0b565b0491600091565b634e487b7160e01b600052601260045260246000fd5b9394939091506000811315612287578060001904821181151516610ed157020490600092565b50505090600091600091565b60e0813d821161232d575b816122ab60e09383611e46565b81010312611a7a578051918383168303610139576122cb60208301612123565b506122d860408301612131565b506122e560608301612131565b506122f260808301612131565b5060a082015160ff81160361013957506121d26121cd6121ec95946121fa9461232060c061221f9601612085565b50945094955050506121b3565b3d915061229e565b51906001600160a01b0382168203610fda57565b805115611f585760200190565b60005b60208110612365575050565b606082820152602001612359565b90815180825260208080930193019160005b828110612393575050505090565b83516001600160a01b031685529381019392810192600101612385565b9190826040910312610fda576020825192015190565b95906001600160a01b0380604051986123de8a611df2565b1691828952169061240b83602099848b820152604051906123fe82611df2565b888252888c83015261286c565b60405192610100840184811067ffffffffffffffff8211176110fe576001600160a01b03988a9860e098610104986000978d9788966040528a528c8a015260020b604089015230606089015242608089015260a088015260c0870152168685015260405197889687956350131c1f60e11b8752828151166004880152828a820151166024880152604081015160020b60448801528260608201511660648801526080810151608488015260a081015160a488015260c081015160c488015201511660e4850152165af18015610ec5576124e2575050565b813d83116124ff575b6124f58183611e46565b81010312610fda57565b503d6124eb565b51906001600160801b0382168203610fda57565b926125749a979498969892919260009a60409c8d966001600160a01b038089519261254484611df2565b169788835216978860208301525161255b81611df2565b8a81528d60208201526001600160a01b038a169161286c565b15612675575050505050600119421161127e579060c4606092876001600160a01b038a51926125a284611e0e565b878452602084019586528b8401998a528b878501848152608086019085825260a0870192600142018452519c8d998a9863219f5d1760e01b8a525160048a01525160248901525160448801525160648701525160848601525160a4850152165af192831561266b57849585809561261d575b50505093929190565b929450945094506060853d8211612663575b8161263c60609383611e46565b81010312610139575061264e84612506565b92602085015194015192939291388080612614565b3d915061262f565b85513d86823e3d90fd5b9093968099939692959961280a575b506001194211610e64578a519361016085019585871067ffffffffffffffff8811176110fe5760809861014098610164988f528752602087015260020b8c86015260020b606085015260020b8684015260a083015260c08201528660e082015286610100820152306101208201526001420183820152866001600160a01b0389519788958694636d70c41560e01b86528381511660048701528360208201511660248701528c81015160020b6044870152606081015160020b60648701528881015160020b608487015260a081015160a487015260c081015160c487015260e081015160e487015261010081015161010487015283610120820151166101248701520151610144850152165af191821561280057839084958580956127ac5750505093929190565b93955093509450506080843d82116127f8575b816127cc60809383611e46565b81010312610139575082519160606127e660208601612506565b92850151940151919392388080612614565b3d91506127bf565b84513d85823e3d90fd5b6001600160a01b038a163b15612868578b51630852cd8d60e31b815260048101919091528a81602481836001600160a01b038f165af1801561285e571561268457612857909a919a611dde565b9838612684565b8c513d8d823e3d90fd5b8a80fd5b8051825160405163095ea7b360e01b8082526001600160a01b0380881660048401526024830193909352969592821694602094909392918581806044810103816000809b5af1801561114557612936575b50840151928401516040519788526001600160a01b03909216600488015260248701919091529394938291859116818581604481015b03925af180156102165761290657505050565b82813d831161292f575b61291a8183611e46565b81010312610139575061292c90612085565b50565b503d612910565b8581813d8311612979575b61294b8183611e46565b8101031261125e5785809593816128f39a9b96946129698b95612085565b5094969b9a5050939550506128bd565b503d612941565b919091604051906370a0823160e01b9182815230600482015260209485826024816001600160a01b038097165afa938415610ec5578692600095612a1c575b5060249060405194859384928352306004840152165afa938415610ec5576000946129eb575b50509190565b8181959293953d8311612a15575b612a038183611e46565b810103126101395750519138806129e5565b503d6129f9565b919282819692963d8311612a4a575b612a358183611e46565b810103126101395750519285919060246129bf565b503d612a2b56fea2646970667358221220cc8e30a4d4bd2a287530d15686f499c2fe2d43c890d39cc1c25a68bad6f06a6364736f6c634300080f00332f8788117e7eff1d82e926ec794901d17c78024a50270940304540a733656f0d",
  "linkReferences": {},
  "deployedLinkReferences": {}
}