{
  "contracts/Rebalancer.sol": {
    "Rebalancer": {
      "abi": [
        {
          "inputs": [
            {
              "internalType": "address",
              "name": "_router",
              "type": "address"
            },
            {
              "internalType": "uint256",
              "name": "_maxGasFee",
              "type": "uint256"
            }
          ],
          "stateMutability": "nonpayable",
          "type": "constructor"
        },
        {
          "inputs": [],
          "name": "InsufficientLiquidity",
          "type": "error"
        },
        {
          "inputs": [],
          "name": "InvalidSwapPath",
          "type": "error"
        },
        {
          "anonymous": false,
          "inputs": [
            {
              "indexed": true,
              "internalType": "address",
              "name": "previousOwner",
              "type": "address"
            },
            {
              "indexed": true,
              "internalType": "address",
              "name": "newOwner",
              "type": "address"
            }
          ],
          "name": "OwnershipTransferred",
          "type": "event"
        },
        {
          "anonymous": false,
          "inputs": [
            {
              "indexed": false,
              "internalType": "uint256",
              "name": "timestamp",
              "type": "uint256"
            }
          ],
          "name": "RebalancedV3",
          "type": "event"
        },
        {
          "anonymous": false,
          "inputs": [
            {
              "indexed": false,
              "internalType": "address",
              "name": "router",
              "type": "address"
            },
            {
              "indexed": false,
              "internalType": "bool",
              "name": "added",
              "type": "bool"
            }
          ],
          "name": "RouterUpdated",
          "type": "event"
        },
        {
          "inputs": [],
          "name": "maxSlippage",
          "outputs": [
            {
              "internalType": "uint256",
              "name": "",
              "type": "uint256"
            }
          ],
          "stateMutability": "view",
          "type": "function"
        },
        {
          "inputs": [
            {
              "internalType": "address",
              "name": "operator",
              "type": "address"
            },
            {
              "internalType": "address",
              "name": "from",
              "type": "address"
            },
            {
              "internalType": "uint256",
              "name": "tokenId",
              "type": "uint256"
            },
            {
              "internalType": "bytes",
              "name": "data",
              "type": "bytes"
            }
          ],
          "name": "onERC721Received",
          "outputs": [
            {
              "internalType": "bytes4",
              "name": "",
              "type": "bytes4"
            }
          ],
          "stateMutability": "pure",
          "type": "function"
        },
        {
          "inputs": [],
          "name": "owner",
          "outputs": [
            {
              "internalType": "address",
              "name": "",
              "type": "address"
            }
          ],
          "stateMutability": "view",
          "type": "function"
        },
        {
          "inputs": [
            {
              "internalType": "contract IERC20",
              "name": "tokenX",
              "type": "address"
            },
            {
              "internalType": "contract IERC20",
              "name": "tokenY",
              "type": "address"
            },
            {
              "internalType": "uint16",
              "name": "binStep",
              "type": "uint16"
            },
            {
              "internalType": "uint256",
              "name": "amountXMin",
              "type": "uint256"
            },
            {
              "internalType": "uint256",
              "name": "amountYMin",
              "type": "uint256"
            },
            {
              "internalType": "uint256[]",
              "name": "ids",
              "type": "uint256[]"
            },
            {
              "internalType": "uint256[]",
              "name": "amounts",
              "type": "uint256[]"
            },
            {
              "components": [
                {
                  "internalType": "uint256[]",
                  "name": "pairBinSteps",
                  "type": "uint256[]"
                },
                {
                  "internalType": "enum ILBRouter.Version[]",
                  "name": "versions",
                  "type": "uint8[]"
                },
                {
                  "internalType": "contract IERC20[]",
                  "name": "tokenPath",
                  "type": "address[]"
                }
              ],
              "internalType": "struct ILBRouter.Path",
              "name": "path",
              "type": "tuple"
            },
            {
              "components": [
                {
                  "internalType": "contract IERC20",
                  "name": "tokenX",
                  "type": "address"
                },
                {
                  "internalType": "contract IERC20",
                  "name": "tokenY",
                  "type": "address"
                },
                {
                  "internalType": "uint256",
                  "name": "binStep",
                  "type": "uint256"
                },
                {
                  "internalType": "uint256",
                  "name": "amountX",
                  "type": "uint256"
                },
                {
                  "internalType": "uint256",
                  "name": "amountY",
                  "type": "uint256"
                },
                {
                  "internalType": "uint256",
                  "name": "amountXMin",
                  "type": "uint256"
                },
                {
                  "internalType": "uint256",
                  "name": "amountYMin",
                  "type": "uint256"
                },
                {
                  "internalType": "uint256",
                  "name": "activeIdDesired",
                  "type": "uint256"
                },
                {
                  "internalType": "uint256",
                  "name": "idSlippage",
                  "type": "uint256"
                },
                {
                  "internalType": "int256[]",
                  "name": "deltaIds",
                  "type": "int256[]"
                },
                {
                  "internalType": "uint256[]",
                  "name": "distributionX",
                  "type": "uint256[]"
                },
                {
                  "internalType": "uint256[]",
                  "name": "distributionY",
                  "type": "uint256[]"
                },
                {
                  "internalType": "address",
                  "name": "to",
                  "type": "address"
                },
                {
                  "internalType": "address",
                  "name": "refundTo",
                  "type": "address"
                },
                {
                  "internalType": "uint256",
                  "name": "deadline",
                  "type": "uint256"
                }
              ],
              "internalType": "struct ILBRouter.LiquidityParameters",
              "name": "liquidityParameters",
              "type": "tuple"
            },
            {
              "internalType": "address",
              "name": "router",
              "type": "address"
            }
          ],
          "name": "rebalancerV2",
          "outputs": [],
          "stateMutability": "nonpayable",
          "type": "function"
        },
        {
          "inputs": [
            {
              "internalType": "address",
              "name": "router",
              "type": "address"
            },
            {
              "internalType": "address",
              "name": "tokenA",
              "type": "address"
            },
            {
              "internalType": "address",
              "name": "tokenB",
              "type": "address"
            },
            {
              "internalType": "uint256",
              "name": "positionId",
              "type": "uint256"
            },
            {
              "internalType": "int24",
              "name": "tickSpacing",
              "type": "int24"
            },
            {
              "internalType": "int24",
              "name": "newTickLower",
              "type": "int24"
            },
            {
              "internalType": "int24",
              "name": "newTickUpper",
              "type": "int24"
            },
            {
              "internalType": "uint160",
              "name": "sqrtPriceLimitX96",
              "type": "uint160"
            },
            {
              "internalType": "address",
              "name": "_v3PositionManager",
              "type": "address"
            }
          ],
          "name": "rebalancerV3",
          "outputs": [],
          "stateMutability": "nonpayable",
          "type": "function"
        },
        {
          "inputs": [
            {
              "internalType": "address",
              "name": "_route",
              "type": "address"
            }
          ],
          "name": "removeRouter",
          "outputs": [],
          "stateMutability": "nonpayable",
          "type": "function"
        },
        {
          "inputs": [],
          "name": "renounceOwnership",
          "outputs": [],
          "stateMutability": "nonpayable",
          "type": "function"
        },
        {
          "inputs": [
            {
              "internalType": "address",
              "name": "",
              "type": "address"
            }
          ],
          "name": "routers",
          "outputs": [
            {
              "internalType": "bool",
              "name": "",
              "type": "bool"
            }
          ],
          "stateMutability": "view",
          "type": "function"
        },
        {
          "inputs": [
            {
              "internalType": "uint256",
              "name": "_gasFee",
              "type": "uint256"
            }
          ],
          "name": "setMaxGasFee",
          "outputs": [],
          "stateMutability": "nonpayable",
          "type": "function"
        },
        {
          "inputs": [
            {
              "internalType": "uint256",
              "name": "_slippage",
              "type": "uint256"
            }
          ],
          "name": "setMaxSlippage",
          "outputs": [],
          "stateMutability": "nonpayable",
          "type": "function"
        },
        {
          "inputs": [
            {
              "internalType": "address",
              "name": "_router",
              "type": "address"
            }
          ],
          "name": "setRouter",
          "outputs": [],
          "stateMutability": "nonpayable",
          "type": "function"
        },
        {
          "inputs": [
            {
              "internalType": "address",
              "name": "_v3PositionManager",
              "type": "address"
            },
            {
              "internalType": "uint256",
              "name": "positionId",
              "type": "uint256"
            },
            {
              "internalType": "address",
              "name": "newOwner",
              "type": "address"
            }
          ],
          "name": "tranferPositionOwnership",
          "outputs": [],
          "stateMutability": "nonpayable",
          "type": "function"
        },
        {
          "inputs": [
            {
              "internalType": "address",
              "name": "newOwner",
              "type": "address"
            }
          ],
          "name": "transferOwnership",
          "outputs": [],
          "stateMutability": "nonpayable",
          "type": "function"
        },
        {
          "inputs": [
            {
              "internalType": "address",
              "name": "token",
              "type": "address"
            },
            {
              "internalType": "uint256",
              "name": "amount",
              "type": "uint256"
            },
            {
              "internalType": "address",
              "name": "to",
              "type": "address"
            }
          ],
          "name": "withdrawTokens",
          "outputs": [],
          "stateMutability": "nonpayable",
          "type": "function"
        }
      ],
      "evm": {
        "bytecode": {
          "linkReferences": {},
          "object": "6080346100c757601f61210f38819003918201601f19168301916001600160401b038311848410176100cc5780849260409485528339810103126100c75780516001600160a01b0391828216918290036100c75760200151906000543360018060a01b0319821617600055604051933391167f8be0079c531659141344cd1fd0a4f28419497f9722a3daafe3b4186f6b6457e0600086a3600180556101f460045560005260026020526040600020600160ff1982541617905560035561202c90816100e38239f35b600080fd5b634e487b7160e01b600052604160045260246000fdfe608080604052600436101561001357600080fd5b600090813560e01c908163150b7a02146115ec575080631a15fcbc14610fb45780634050544014610f4457806343f68a4914610ed157806364aa489614610ded57806369a09dcc146106195780636ae0b154146105bf578063715018a61461056057806380dd9a1f146105235780638c04166f146105055780638da5cb5b146104df5780639bc5c5091461026d578063c0d78655146101845763f2fde38b146100bb57600080fd5b34610181576020366003190112610181576100d4611655565b6100dc61177d565b6001600160a01b03809116801561012d5760005491816001600160a01b031984161760005560405192167f8be0079c531659141344cd1fd0a4f28419497f9722a3daafe3b4186f6b6457e0600084a3f35b60405162461bcd60e51b815260206004820152602660248201527f4f776e61626c653a206e6577206f776e657220697320746865207a65726f206160448201526564647265737360d01b6064820152608490fd5b80fd5b5034610181576020366003190112610181576001600160a01b036101a6611655565b6101ae61177d565b16801561022857808252600260205260ff6040832054166101e357815260026020526040808220805460ff1916600117905551f35b60405162461bcd60e51b815260206004820152601560248201527f526f7574657220616c72656164792065786973747300000000000000000000006044820152606490fd5b60405162461bcd60e51b815260206004820152601c60248201527f526f7574657220616464726573732063616e2774206265207a65726f000000006044820152606490fd5b50346101815761027c36611749565b61028792919261177d565b6001600160a01b0380921691821561049a578116156104555782156104105760405163a9059cbb60e01b60208083019182526001600160a01b039390931660248301526044808301959095529381529092601f1990859081906102eb6064866116b1565b604051946102f886611695565b8786527f5361666545524332303a206c6f772d6c6576656c2063616c6c206661696c656488870152519082875af13d15610403573d9367ffffffffffffffff85116103ed57610362946103558760405195601f84011601856116b1565b83523d878785013e611908565b8051908282159283156103d5575b5050501561037e5750604051f35b6084906040519062461bcd60e51b82526004820152602a60248201527f5361666545524332303a204552433230206f7065726174696f6e20646964206e6044820152691bdd081cdd58d8d9595960b21b6064820152fd5b6103e593508201810191016118f0565b388281610370565b634e487b7160e01b600052604160045260246000fd5b6103629360609250611908565b60405162461bcd60e51b815260206004820152601460248201527f416d6f756e742063616e2774206265207a65726f0000000000000000000000006044820152606490fd5b60405162461bcd60e51b815260206004820152601f60248201527f526563697069656e7420616464726573732063616e2774206265207a65726f006044820152606490fd5b60405162461bcd60e51b815260206004820152601b60248201527f546f6b656e20616464726573732063616e2774206265207a65726f00000000006044820152606490fd5b50346101815780600319360112610181576001600160a01b036020915416604051908152f35b50346101815780600319360112610181576020600454604051908152f35b50346101815760203660031901126101815760ff60406020926001600160a01b0361054c611655565b168152600284522054166040519015158152f35b503461018157806003193601126101815761057961177d565b6000546001600160a01b0319811660005560006001600160a01b0360405192167f8be0079c531659141344cd1fd0a4f28419497f9722a3daafe3b4186f6b6457e08284a3f35b5034610181576020366003190112610181576001600160a01b036105e1611655565b6105e961177d565b16808252600260205261060260ff604084205416611821565b815260026020526040808220805460ff1916905551f35b50346101815761012036600319011261018157610634611655565b61063c61166b565b906001600160a01b036044351660443503610de45760843560020b60843503610de45760a4358060020b8103610de45760c435918260020b8303610de4576001600160a01b0360e4351660e43503610de9576001600160a01b0361010435166101043503610de4576106ac61188e565b6106b461177d565b6106c26003543a11156117d5565b6001600160a01b038116855260026020526106e360ff604087205416611821565b60405163133f757160e31b8152606435600482015261014081602481610104356001600160a01b03165afa908115610cb4578691610d46575b506001600160801b0380821611610cf1576001194211610cdd57604051908160a081011067ffffffffffffffff60a0840111176103ed5760a0820160409081526064803584526001600160801b03928316602085019081528285018a8152606086018b815242600101608088019081528551630624e65f60e11b81529751600489015292519095166024870152516044860152925190840152905160848301528160a48189610104356001600160a01b03165af18015610cb457610cbf575b5060405180608081011067ffffffffffffffff6080830111176103ed576080810160405260643581526001600160801b036020820130815281604084018181526001600160a01b0360608601938385526040519663fc6f786560e01b8852516004880152511660248601525116604484015251166064820152604081608481896001600160a01b0361010435165af1908115610cb45786908792610c82575b501590811591610c78575b5015610c335761089760443585611dd6565b819291158015610c2b575b610be65780831115610bc257916108bf6108ce9360e4359261186d565b60011c60843560443588611ea7565b6108da60443584611dd6565b9290916109316040516108ec81611695565b6001600160a01b03871681526001600160a01b0360443516602082015260405161091581611695565b8581528660208201526001600160a01b03610104351691611ce0565b60643515610a35575050909150604051918260c081011067ffffffffffffffff60c0850111176103ed5760c083016040526064358352602083019182526040830190815260608301848152608084019185835260a08501936001420185526040519563219f5d1760e01b87525160048701525160248601525160448501525160648401525160848301525160a482015260608160c481856001600160a01b0361010435165af18015610a2a576109ed575b505b60018055604051f35b6060813d606011610a22575b81610a06606093836116b1565b81010312610a1e57610a1790611fc0565b50386109e2565b5080fd5b3d91506109f9565b6040513d84823e3d90fd5b604051948561016081011067ffffffffffffffff610160880111176103ed576001600160a01b039061016087016040521685526001600160a01b0360443516602086015260843560020b604086015260020b606085015260020b608084015260a083015260c08201528160e082015281610100820152306101208201526001420161014082015261014060405191636d70c41560e01b83526001600160a01b0381511660048401526001600160a01b036020820151166024840152604081015160020b6044840152606081015160020b6064840152608081015160020b608484015260a081015160a484015260c081015160c484015260e081015160e48401526101008101516101048401526001600160a01b0361012082015116610124840152015161014482015260808161016481856001600160a01b0361010435165af18015610a2a57610b86575b506109e4565b6080813d608011610bba575b81610b9f608093836116b1565b81010312610a1e576020610bb39101611fc0565b5038610b80565b3d9150610b92565b610bd2610be19360e4359261186d565b60011c60843587604435611ea7565b6108ce565b60405162461bcd60e51b815260206004820152601160248201527f4e6f20746f6b656e7320746f20737761700000000000000000000000000000006044820152606490fd5b5080156108a2565b60405162461bcd60e51b815260206004820152601360248201527f4e6f20746f6b656e7320636f6c6c6563746564000000000000000000000000006044820152606490fd5b9050151538610885565b9050610ca6915060403d604011610cad575b610c9e81836116b1565b8101906119e8565b903861087a565b503d610c94565b6040513d88823e3d90fd5b610cd79060403d604011610cad57610c9e81836116b1565b506107db565b634e487b7160e01b86526011600452602486fd5b60405162461bcd60e51b815260206004820152602760248201527f53616665436173743a2076616c756520646f65736e27742066697420696e20316044820152663238206269747360c81b6064820152608490fd5b9050610140813d61014011610ddc575b81610d6461014093836116b1565b81010312610dd857610d7581611fd4565b50610d8260208201611fd4565b50610d8f60408201611fe8565b50610d9c60608201611fe8565b50610da960808201611fe8565b50610dd1610120610dbc60a08401611fc0565b92610dca6101008201611fc0565b5001611fc0565b503861071c565b8580fd5b3d9150610d56565b600080fd5b8480fd5b503461018157610dfc36611749565b9190610e0661177d565b6001600160a01b03809316928315610e8c5784921692833b15610e8857606490836040519586948593632142170760e11b8552306004860152602485015260448401525af18015610a2a57610e5c575b50604051f35b67ffffffffffffffff8111610e745760405238610e56565b634e487b7160e01b82526041600452602482fd5b8280fd5b60405162461bcd60e51b815260206004820152601760248201527f4e6577206f776e65722063616e2774206265207a65726f0000000000000000006044820152606490fd5b503461018157602036600319011261018157600435610eee61177d565b6103e88111610eff57600455604051f35b60405162461bcd60e51b815260206004820152601060248201527f4d61782031302520736c697070616765000000000000000000000000000000006044820152606490fd5b503461018157602036600319011261018157600435610f6161177d565b8015610f6f57600355604051f35b60405162461bcd60e51b815260206004820152601560248201527f6d6178206665652063616e2774206265207a65726f00000000000000000000006044820152606490fd5b50346101815761014036600319011261018157610fcf611655565b610fd761166b565b906044359161ffff8316830361150f5760a43567ffffffffffffffff8111610de9576110079036906004016116eb565b60c43567ffffffffffffffff8111610dd8576110279036906004016116eb565b9360e4359467ffffffffffffffff8611611593576060600319873603011261159357604051956060870187811067ffffffffffffffff8211176115d857604052806004013567ffffffffffffffff81116115b75761108b90600436918401016116eb565b8752602481013567ffffffffffffffff81116115b7578101366023820112156115b75760048101356110bc816116d3565b916110ca60405193846116b1565b8183526024602084019260051b820101903682116115b357602401915b8183106115bb57505050602088015260448101359067ffffffffffffffff82116115b7573660238383010112156115b7576004828201013590611129826116d3565b9261113760405194856116b1565b82845260208401913660248560051b8484010101116115b35780820160240192915b60248560051b82840101018410611597575050505050604087015267ffffffffffffffff6101043511611593576101e06101043536036003190112611593576001600160a01b0361012435166101243503611593576111b661188e565b6111be61177d565b6111cc6003543a11156117d5565b6001600160a01b036101243516875260026020526111f060ff604089205416611821565b606419421161157f5760409161127061ffff9261125e85519687958695636110acdb60e11b87526001600160a01b038c1660048801526001600160a01b038b1660248801521660448601526064356064860152608435608486015261012060a48601526101248501906119fe565b8381036003190160c4850152906119fe565b3060e4830152606442016101048301520381886001600160a01b0361012435165af1801561157457611556575b506112ba6001600160a01b0382166001600160a01b038416611dd6565b9390918215801561154e575b610be657611310946001600160a01b039384938282111561152f576113089261130361012435936112fa60843593826118e4565b60011c9061186d565b611a32565b169116611dd6565b50506040516351e3938d60e11b81526020600482015261020481018282610104356004016001600160a01b0361134582611681565b1660248301526001600160a01b0361136260246101043501611681565b1660448301526044610104350135606483015260646101043501356084830152608461010435013560a483015260a461010435013560c483015260c461010435013560e483015260e4610104350135610104830152610104803501356101248301526113d5610124610104350182611c6a565b80610144969296926101e0848701525261022484019590855b8181106115135750505061147a6001600160a01b0361146761145c86979861144a61143e976114238698610104350182611c6a565b9990936023199a8b958d610164809882860301910152611c9f565b92610104350190611c6a565b90610184988a840301898b0152611c9f565b946101043501611681565b166101a490818601526101043501611681565b166101c490818401526101043501356101e48301520381836001600160a01b0361012435165af18015610a2a576114b5575060018055604051f35b3d8083833e6114c481836116b1565b810160c082820312610e8857608082015167ffffffffffffffff811161150f57816114f0918401611c0c565b5060a082015167ffffffffffffffff811161150f57610a179201611c0c565b8380fd5b823588526020978801978a9750899650909201916001016113ee565b611549929161130361012435936112fa81606435946118e4565b611308565b5084156112c6565b61156e9060403d604011610cad57610c9e81836116b1565b5061129d565b6040513d87823e3d90fd5b634e487b7160e01b87526011600452602487fd5b8680fd5b6020806024946115a687611681565b8152019401939250611159565b8b80fd5b8880fd5b823560038110156115d4578152602092830192016110e7565b8c80fd5b634e487b7160e01b89526041600452602489fd5b905034610a1e576080366003190112610a1e57611607611655565b5061161061166b565b5060643567ffffffffffffffff80821161150f573660238301121561150f57816004013590811161150f5736910160240111610a1e57630a85bd0160e11b8152602090f35b600435906001600160a01b0382168203610de457565b602435906001600160a01b0382168203610de457565b35906001600160a01b0382168203610de457565b6040810190811067ffffffffffffffff8211176103ed57604052565b90601f8019910116810190811067ffffffffffffffff8211176103ed57604052565b67ffffffffffffffff81116103ed5760051b60200190565b81601f82011215610de457803591611702836116d3565b9261171060405194856116b1565b808452602092838086019260051b820101928311610de4578301905b82821061173a575050505090565b8135815290830190830161172c565b6060906003190112610de4576001600160a01b036004358181168103610de45791602435916044359081168103610de45790565b6001600160a01b0360005416330361179157565b606460405162461bcd60e51b815260206004820152602060248201527f4f776e61626c653a2063616c6c6572206973206e6f7420746865206f776e65726044820152fd5b156117dc57565b60405162461bcd60e51b815260206004820152601260248201527f47617320707269636520746f6f206869676800000000000000000000000000006044820152606490fd5b1561182857565b60405162461bcd60e51b815260206004820152601460248201527f526f7574657220646f65736e27742065786973740000000000000000000000006044820152606490fd5b818110611878570390565b634e487b7160e01b600052601160045260246000fd5b60026001541461189f576002600155565b60405162461bcd60e51b815260206004820152601f60248201527f5265656e7472616e637947756172643a207265656e7472616e742063616c6c006044820152606490fd5b81198111611878570190565b90816020910312610de457518015158103610de45790565b9192901561196a575081511561191c575090565b3b156119255790565b60405162461bcd60e51b815260206004820152601d60248201527f416464726573733a2063616c6c20746f206e6f6e2d636f6e74726163740000006044820152606490fd5b82519091501561197d5750805190602001fd5b6040519062461bcd60e51b82528160208060048301528251928360248401526000915b8483106119cf5750509180604493116119c2575b601f01601f19168101030190fd5b60008382840101526119b4565b81830181015186840160440152859350918201916119a0565b9190826040910312610de4576020825192015190565b90815180825260208080930193019160005b828110611a1e575050505090565b835185529381019392810192600101611a10565b9092604091825190611a4382611695565b83850191825196875115611bf6576001600160a01b0393846020809a0151168352805192835193600194851015611bf657611a9c91878a8a930151168c820152895190611a8f82611695565b878252858d830152611ce0565b60641942116118785796889593949287519889966315221fd760e11b8852600490818901526024948589015260a0604489015288611ae78551606060a48c01526101048b01906119fe565b9401519360a31995868a83030160c48b01528a80875193848152019601926000915b838310611bac57505050505051928683030160e487015286808451938481520193019160005b818110611b9257505050508391826000923060648301526064420160848301520393165af1908115611b885750611b64575050565b813d8311611b81575b611b7781836116b1565b81010312610de457565b503d611b6d565b513d6000823e3d90fd5b8351861685528b988b985094850194909301928201611b2f565b9295989a50928097999b5095909395516003811015611be2578e8281928b945201970193018d9a98969593928d9a989592611b09565b82602185634e487b7160e01b600052526000fd5b634e487b7160e01b600052603260045260246000fd5b81601f82011215610de457805191611c23836116d3565b92611c3160405194856116b1565b808452602092838086019260051b820101928311610de4578301905b828210611c5b575050505090565b81518152908301908301611c4d565b9035601e1982360301811215610de457016020813591019167ffffffffffffffff8211610de4578160051b36038313610de457565b90918281527f07ffffffffffffffffffffffffffffffffffffffffffffffffffffffffffffff8311610de45760209260051b80928483013701016000815290565b8051825160405163095ea7b360e01b8082526001600160a01b03878116600484015260248301939093526020969295919490939192918790869060449082906000908b165af1948515611dad57611d7296886000938198938294611db9575b500151169301519360405196879586948593845260048401602090939291936001600160a01b0360408201951681520152565b03925af18015611dad57611d84575050565b81611da392903d10611da6575b611d9b81836116b1565b8101906118f0565b50565b503d611d91565b6040513d6000823e3d90fd5b611dcf90833d8511611da657611d9b81836116b1565b5038611d3f565b919091604051906370a0823160e01b9182815230600482015260209485826024816001600160a01b038097165afa938415611dad578692600095611e72575b5060249060405194859384928352306004840152165afa938415611dad57600094611e41575b50509190565b8181959293953d8311611e6b575b611e5981836116b1565b81010312610181575051913880611e3b565b503d611e4f565b919282819692963d8311611ea0575b611e8b81836116b1565b81010312610181575051928591906024611e15565b503d611e81565b94939291906001600160a01b038060405197611ec289611695565b169182885216611eee86602098838a82015260405190611ee182611695565b878252878b830152611ce0565b6040519161010083019683881067ffffffffffffffff8911176103ed576040978852908352828801918252600293840b8388019081523060608501908152426080860190815260a08601978852600060c087018181526001600160a01b039a8b1660e089019081529b516350131c1f60e11b815297518b16600489015295518a166024880152925190960b6044860152518716606485015293516084840152935160a48301525160c48201529351831660e4850152849284926101049284929091165af18015611dad57611b64575050565b51906001600160801b0382168203610de457565b51906001600160a01b0382168203610de457565b51908160020b8203610de45756fea2646970667358221220fdfa1bed54973ef069bd7946c3a7eaa4758742240f20a745e29541512bd725fd64736f6c634300080f0033",
          "opcodes": "PUSH1 0x80 CALLVALUE PUSH2 0xC7 JUMPI PUSH1 0x1F PUSH2 0x210F CODESIZE DUP2 SWAP1 SUB SWAP2 DUP3 ADD PUSH1 0x1F NOT AND DUP4 ADD SWAP2 PUSH1 0x1 PUSH1 0x1 PUSH1 0x40 SHL SUB DUP4 GT DUP5 DUP5 LT OR PUSH2 0xCC JUMPI DUP1 DUP5 SWAP3 PUSH1 0x40 SWAP5 DUP6 MSTORE DUP4 CODECOPY DUP2 ADD SUB SLT PUSH2 0xC7 JUMPI DUP1 MLOAD PUSH1 0x1 PUSH1 0x1 PUSH1 0xA0 SHL SUB SWAP2 DUP3 DUP3 AND SWAP2 DUP3 SWAP1 SUB PUSH2 0xC7 JUMPI PUSH1 0x20 ADD MLOAD SWAP1 PUSH1 0x0 SLOAD CALLER PUSH1 0x1 DUP1 PUSH1 0xA0 SHL SUB NOT DUP3 AND OR PUSH1 0x0 SSTORE PUSH1 0x40 MLOAD SWAP4 CALLER SWAP2 AND PUSH32 0x8BE0079C531659141344CD1FD0A4F28419497F9722A3DAAFE3B4186F6B6457E0 PUSH1 0x0 DUP7 LOG3 PUSH1 0x1 DUP1 SSTORE PUSH2 0x1F4 PUSH1 0x4 SSTORE PUSH1 0x0 MSTORE PUSH1 0x2 PUSH1 0x20 MSTORE PUSH1 0x40 PUSH1 0x0 KECCAK256 PUSH1 0x1 PUSH1 0xFF NOT DUP3 SLOAD AND OR SWAP1 SSTORE PUSH1 0x3 SSTORE PUSH2 0x202C SWAP1 DUP2 PUSH2 0xE3 DUP3 CODECOPY RETURN JUMPDEST PUSH1 0x0 DUP1 REVERT JUMPDEST PUSH4 0x4E487B71 PUSH1 0xE0 SHL PUSH1 0x0 MSTORE PUSH1 0x41 PUSH1 0x4 MSTORE PUSH1 0x24 PUSH1 0x0 REVERT INVALID PUSH1 0x80 DUP1 PUSH1 0x40 MSTORE PUSH1 0x4 CALLDATASIZE LT ISZERO PUSH2 0x13 JUMPI PUSH1 0x0 DUP1 REVERT JUMPDEST PUSH1 0x0 SWAP1 DUP2 CALLDATALOAD PUSH1 0xE0 SHR SWAP1 DUP2 PUSH4 0x150B7A02 EQ PUSH2 0x15EC JUMPI POP DUP1 PUSH4 0x1A15FCBC EQ PUSH2 0xFB4 JUMPI DUP1 PUSH4 0x40505440 EQ PUSH2 0xF44 JUMPI DUP1 PUSH4 0x43F68A49 EQ PUSH2 0xED1 JUMPI DUP1 PUSH4 0x64AA4896 EQ PUSH2 0xDED JUMPI DUP1 PUSH4 0x69A09DCC EQ PUSH2 0x619 JUMPI DUP1 PUSH4 0x6AE0B154 EQ PUSH2 0x5BF JUMPI DUP1 PUSH4 0x715018A6 EQ PUSH2 0x560 JUMPI DUP1 PUSH4 0x80DD9A1F EQ PUSH2 0x523 JUMPI DUP1 PUSH4 0x8C04166F EQ PUSH2 0x505 JUMPI DUP1 PUSH4 0x8DA5CB5B EQ PUSH2 0x4DF JUMPI DUP1 PUSH4 0x9BC5C509 EQ PUSH2 0x26D JUMPI DUP1 PUSH4 0xC0D78655 EQ PUSH2 0x184 JUMPI PUSH4 0xF2FDE38B EQ PUSH2 0xBB JUMPI PUSH1 0x0 DUP1 REVERT JUMPDEST CALLVALUE PUSH2 0x181 JUMPI PUSH1 0x20 CALLDATASIZE PUSH1 0x3 NOT ADD SLT PUSH2 0x181 JUMPI PUSH2 0xD4 PUSH2 0x1655 JUMP JUMPDEST PUSH2 0xDC PUSH2 0x177D JUMP JUMPDEST PUSH1 0x1 PUSH1 0x1 PUSH1 0xA0 SHL SUB DUP1 SWAP2 AND DUP1 ISZERO PUSH2 0x12D JUMPI PUSH1 0x0 SLOAD SWAP2 DUP2 PUSH1 0x1 PUSH1 0x1 PUSH1 0xA0 SHL SUB NOT DUP5 AND OR PUSH1 0x0 SSTORE PUSH1 0x40 MLOAD SWAP3 AND PUSH32 0x8BE0079C531659141344CD1FD0A4F28419497F9722A3DAAFE3B4186F6B6457E0 PUSH1 0x0 DUP5 LOG3 RETURN JUMPDEST PUSH1 0x40 MLOAD PUSH3 0x461BCD PUSH1 0xE5 SHL DUP2 MSTORE PUSH1 0x20 PUSH1 0x4 DUP3 ADD MSTORE PUSH1 0x26 PUSH1 0x24 DUP3 ADD MSTORE PUSH32 0x4F776E61626C653A206E6577206F776E657220697320746865207A65726F2061 PUSH1 0x44 DUP3 ADD MSTORE PUSH6 0x646472657373 PUSH1 0xD0 SHL PUSH1 0x64 DUP3 ADD MSTORE PUSH1 0x84 SWAP1 REVERT JUMPDEST DUP1 REVERT JUMPDEST POP CALLVALUE PUSH2 0x181 JUMPI PUSH1 0x20 CALLDATASIZE PUSH1 0x3 NOT ADD SLT PUSH2 0x181 JUMPI PUSH1 0x1 PUSH1 0x1 PUSH1 0xA0 SHL SUB PUSH2 0x1A6 PUSH2 0x1655 JUMP JUMPDEST PUSH2 0x1AE PUSH2 0x177D JUMP JUMPDEST AND DUP1 ISZERO PUSH2 0x228 JUMPI DUP1 DUP3 MSTORE PUSH1 0x2 PUSH1 0x20 MSTORE PUSH1 0xFF PUSH1 0x40 DUP4 KECCAK256 SLOAD AND PUSH2 0x1E3 JUMPI DUP2 MSTORE PUSH1 0x2 PUSH1 0x20 MSTORE PUSH1 0x40 DUP1 DUP3 KECCAK256 DUP1 SLOAD PUSH1 0xFF NOT AND PUSH1 0x1 OR SWAP1 SSTORE MLOAD RETURN JUMPDEST PUSH1 0x40 MLOAD PUSH3 0x461BCD PUSH1 0xE5 SHL DUP2 MSTORE PUSH1 0x20 PUSH1 0x4 DUP3 ADD MSTORE PUSH1 0x15 PUSH1 0x24 DUP3 ADD MSTORE PUSH32 0x526F7574657220616C7265616479206578697374730000000000000000000000 PUSH1 0x44 DUP3 ADD MSTORE PUSH1 0x64 SWAP1 REVERT JUMPDEST PUSH1 0x40 MLOAD PUSH3 0x461BCD PUSH1 0xE5 SHL DUP2 MSTORE PUSH1 0x20 PUSH1 0x4 DUP3 ADD MSTORE PUSH1 0x1C PUSH1 0x24 DUP3 ADD MSTORE PUSH32 0x526F7574657220616464726573732063616E2774206265207A65726F00000000 PUSH1 0x44 DUP3 ADD MSTORE PUSH1 0x64 SWAP1 REVERT JUMPDEST POP CALLVALUE PUSH2 0x181 JUMPI PUSH2 0x27C CALLDATASIZE PUSH2 0x1749 JUMP JUMPDEST PUSH2 0x287 SWAP3 SWAP2 SWAP3 PUSH2 0x177D JUMP JUMPDEST PUSH1 0x1 PUSH1 0x1 PUSH1 0xA0 SHL SUB DUP1 SWAP3 AND SWAP2 DUP3 ISZERO PUSH2 0x49A JUMPI DUP2 AND ISZERO PUSH2 0x455 JUMPI DUP3 ISZERO PUSH2 0x410 JUMPI PUSH1 0x40 MLOAD PUSH4 0xA9059CBB PUSH1 0xE0 SHL PUSH1 0x20 DUP1 DUP4 ADD SWAP2 DUP3 MSTORE PUSH1 0x1 PUSH1 0x1 PUSH1 0xA0 SHL SUB SWAP4 SWAP1 SWAP4 AND PUSH1 0x24 DUP4 ADD MSTORE PUSH1 0x44 DUP1 DUP4 ADD SWAP6 SWAP1 SWAP6 MSTORE SWAP4 DUP2 MSTORE SWAP1 SWAP3 PUSH1 0x1F NOT SWAP1 DUP6 SWAP1 DUP2 SWAP1 PUSH2 0x2EB PUSH1 0x64 DUP7 PUSH2 0x16B1 JUMP JUMPDEST PUSH1 0x40 MLOAD SWAP5 PUSH2 0x2F8 DUP7 PUSH2 0x1695 JUMP JUMPDEST DUP8 DUP7 MSTORE PUSH32 0x5361666545524332303A206C6F772D6C6576656C2063616C6C206661696C6564 DUP9 DUP8 ADD MSTORE MLOAD SWAP1 DUP3 DUP8 GAS CALL RETURNDATASIZE ISZERO PUSH2 0x403 JUMPI RETURNDATASIZE SWAP4 PUSH8 0xFFFFFFFFFFFFFFFF DUP6 GT PUSH2 0x3ED JUMPI PUSH2 0x362 SWAP5 PUSH2 0x355 DUP8 PUSH1 0x40 MLOAD SWAP6 PUSH1 0x1F DUP5 ADD AND ADD DUP6 PUSH2 0x16B1 JUMP JUMPDEST DUP4 MSTORE RETURNDATASIZE DUP8 DUP8 DUP6 ADD RETURNDATACOPY PUSH2 0x1908 JUMP JUMPDEST DUP1 MLOAD SWAP1 DUP3 DUP3 ISZERO SWAP3 DUP4 ISZERO PUSH2 0x3D5 JUMPI JUMPDEST POP POP POP ISZERO PUSH2 0x37E JUMPI POP PUSH1 0x40 MLOAD RETURN JUMPDEST PUSH1 0x84 SWAP1 PUSH1 0x40 MLOAD SWAP1 PUSH3 0x461BCD PUSH1 0xE5 SHL DUP3 MSTORE PUSH1 0x4 DUP3 ADD MSTORE PUSH1 0x2A PUSH1 0x24 DUP3 ADD MSTORE PUSH32 0x5361666545524332303A204552433230206F7065726174696F6E20646964206E PUSH1 0x44 DUP3 ADD MSTORE PUSH10 0x1BDD081CDD58D8D95959 PUSH1 0xB2 SHL PUSH1 0x64 DUP3 ADD MSTORE REVERT JUMPDEST PUSH2 0x3E5 SWAP4 POP DUP3 ADD DUP2 ADD SWAP2 ADD PUSH2 0x18F0 JUMP JUMPDEST CODESIZE DUP3 DUP2 PUSH2 0x370 JUMP JUMPDEST PUSH4 0x4E487B71 PUSH1 0xE0 SHL PUSH1 0x0 MSTORE PUSH1 0x41 PUSH1 0x4 MSTORE PUSH1 0x24 PUSH1 0x0 REVERT JUMPDEST PUSH2 0x362 SWAP4 PUSH1 0x60 SWAP3 POP PUSH2 0x1908 JUMP JUMPDEST PUSH1 0x40 MLOAD PUSH3 0x461BCD PUSH1 0xE5 SHL DUP2 MSTORE PUSH1 0x20 PUSH1 0x4 DUP3 ADD MSTORE PUSH1 0x14 PUSH1 0x24 DUP3 ADD MSTORE PUSH32 0x416D6F756E742063616E2774206265207A65726F000000000000000000000000 PUSH1 0x44 DUP3 ADD MSTORE PUSH1 0x64 SWAP1 REVERT JUMPDEST PUSH1 0x40 MLOAD PUSH3 0x461BCD PUSH1 0xE5 SHL DUP2 MSTORE PUSH1 0x20 PUSH1 0x4 DUP3 ADD MSTORE PUSH1 0x1F PUSH1 0x24 DUP3 ADD MSTORE PUSH32 0x526563697069656E7420616464726573732063616E2774206265207A65726F00 PUSH1 0x44 DUP3 ADD MSTORE PUSH1 0x64 SWAP1 REVERT JUMPDEST PUSH1 0x40 MLOAD PUSH3 0x461BCD PUSH1 0xE5 SHL DUP2 MSTORE PUSH1 0x20 PUSH1 0x4 DUP3 ADD MSTORE PUSH1 0x1B PUSH1 0x24 DUP3 ADD MSTORE PUSH32 0x546F6B656E20616464726573732063616E2774206265207A65726F0000000000 PUSH1 0x44 DUP3 ADD MSTORE PUSH1 0x64 SWAP1 REVERT JUMPDEST POP CALLVALUE PUSH2 0x181 JUMPI DUP1 PUSH1 0x3 NOT CALLDATASIZE ADD SLT PUSH2 0x181 JUMPI PUSH1 0x1 PUSH1 0x1 PUSH1 0xA0 SHL SUB PUSH1 0x20 SWAP2 SLOAD AND PUSH1 0x40 MLOAD SWAP1 DUP2 MSTORE RETURN JUMPDEST POP CALLVALUE PUSH2 0x181 JUMPI DUP1 PUSH1 0x3 NOT CALLDATASIZE ADD SLT PUSH2 0x181 JUMPI PUSH1 0x20 PUSH1 0x4 SLOAD PUSH1 0x40 MLOAD SWAP1 DUP2 MSTORE RETURN JUMPDEST POP CALLVALUE PUSH2 0x181 JUMPI PUSH1 0x20 CALLDATASIZE PUSH1 0x3 NOT ADD SLT PUSH2 0x181 JUMPI PUSH1 0xFF PUSH1 0x40 PUSH1 0x20 SWAP3 PUSH1 0x1 PUSH1 0x1 PUSH1 0xA0 SHL SUB PUSH2 0x54C PUSH2 0x1655 JUMP JUMPDEST AND DUP2 MSTORE PUSH1 0x2 DUP5 MSTORE KECCAK256 SLOAD AND PUSH1 0x40 MLOAD SWAP1 ISZERO ISZERO DUP2 MSTORE RETURN JUMPDEST POP CALLVALUE PUSH2 0x181 JUMPI DUP1 PUSH1 0x3 NOT CALLDATASIZE ADD SLT PUSH2 0x181 JUMPI PUSH2 0x579 PUSH2 0x177D JUMP JUMPDEST PUSH1 0x0 SLOAD PUSH1 0x1 PUSH1 0x1 PUSH1 0xA0 SHL SUB NOT DUP2 AND PUSH1 0x0 SSTORE PUSH1 0x0 PUSH1 0x1 PUSH1 0x1 PUSH1 0xA0 SHL SUB PUSH1 0x40 MLOAD SWAP3 AND PUSH32 0x8BE0079C531659141344CD1FD0A4F28419497F9722A3DAAFE3B4186F6B6457E0 DUP3 DUP5 LOG3 RETURN JUMPDEST POP CALLVALUE PUSH2 0x181 JUMPI PUSH1 0x20 CALLDATASIZE PUSH1 0x3 NOT ADD SLT PUSH2 0x181 JUMPI PUSH1 0x1 PUSH1 0x1 PUSH1 0xA0 SHL SUB PUSH2 0x5E1 PUSH2 0x1655 JUMP JUMPDEST PUSH2 0x5E9 PUSH2 0x177D JUMP JUMPDEST AND DUP1 DUP3 MSTORE PUSH1 0x2 PUSH1 0x20 MSTORE PUSH2 0x602 PUSH1 0xFF PUSH1 0x40 DUP5 KECCAK256 SLOAD AND PUSH2 0x1821 JUMP JUMPDEST DUP2 MSTORE PUSH1 0x2 PUSH1 0x20 MSTORE PUSH1 0x40 DUP1 DUP3 KECCAK256 DUP1 SLOAD PUSH1 0xFF NOT AND SWAP1 SSTORE MLOAD RETURN JUMPDEST POP CALLVALUE PUSH2 0x181 JUMPI PUSH2 0x120 CALLDATASIZE PUSH1 0x3 NOT ADD SLT PUSH2 0x181 JUMPI PUSH2 0x634 PUSH2 0x1655 JUMP JUMPDEST PUSH2 0x63C PUSH2 0x166B JUMP JUMPDEST SWAP1 PUSH1 0x1 PUSH1 0x1 PUSH1 0xA0 SHL SUB PUSH1 0x44 CALLDATALOAD AND PUSH1 0x44 CALLDATALOAD SUB PUSH2 0xDE4 JUMPI PUSH1 0x84 CALLDATALOAD PUSH1 0x2 SIGNEXTEND PUSH1 0x84 CALLDATALOAD SUB PUSH2 0xDE4 JUMPI PUSH1 0xA4 CALLDATALOAD DUP1 PUSH1 0x2 SIGNEXTEND DUP2 SUB PUSH2 0xDE4 JUMPI PUSH1 0xC4 CALLDATALOAD SWAP2 DUP3 PUSH1 0x2 SIGNEXTEND DUP4 SUB PUSH2 0xDE4 JUMPI PUSH1 0x1 PUSH1 0x1 PUSH1 0xA0 SHL SUB PUSH1 0xE4 CALLDATALOAD AND PUSH1 0xE4 CALLDATALOAD SUB PUSH2 0xDE9 JUMPI PUSH1 0x1 PUSH1 0x1 PUSH1 0xA0 SHL SUB PUSH2 0x104 CALLDATALOAD AND PUSH2 0x104 CALLDATALOAD SUB PUSH2 0xDE4 JUMPI PUSH2 0x6AC PUSH2 0x188E JUMP JUMPDEST PUSH2 0x6B4 PUSH2 0x177D JUMP JUMPDEST PUSH2 0x6C2 PUSH1 0x3 SLOAD GASPRICE GT ISZERO PUSH2 0x17D5 JUMP JUMPDEST PUSH1 0x1 PUSH1 0x1 PUSH1 0xA0 SHL SUB DUP2 AND DUP6 MSTORE PUSH1 0x2 PUSH1 0x20 MSTORE PUSH2 0x6E3 PUSH1 0xFF PUSH1 0x40 DUP8 KECCAK256 SLOAD AND PUSH2 0x1821 JUMP JUMPDEST PUSH1 0x40 MLOAD PUSH4 0x133F7571 PUSH1 0xE3 SHL DUP2 MSTORE PUSH1 0x64 CALLDATALOAD PUSH1 0x4 DUP3 ADD MSTORE PUSH2 0x140 DUP2 PUSH1 0x24 DUP2 PUSH2 0x104 CALLDATALOAD PUSH1 0x1 PUSH1 0x1 PUSH1 0xA0 SHL SUB AND GAS STATICCALL SWAP1 DUP2 ISZERO PUSH2 0xCB4 JUMPI DUP7 SWAP2 PUSH2 0xD46 JUMPI JUMPDEST POP PUSH1 0x1 PUSH1 0x1 PUSH1 0x80 SHL SUB DUP1 DUP3 AND GT PUSH2 0xCF1 JUMPI PUSH1 0x1 NOT TIMESTAMP GT PUSH2 0xCDD JUMPI PUSH1 0x40 MLOAD SWAP1 DUP2 PUSH1 0xA0 DUP2 ADD LT PUSH8 0xFFFFFFFFFFFFFFFF PUSH1 0xA0 DUP5 ADD GT OR PUSH2 0x3ED JUMPI PUSH1 0xA0 DUP3 ADD PUSH1 0x40 SWAP1 DUP2 MSTORE PUSH1 0x64 DUP1 CALLDATALOAD DUP5 MSTORE PUSH1 0x1 PUSH1 0x1 PUSH1 0x80 SHL SUB SWAP3 DUP4 AND PUSH1 0x20 DUP6 ADD SWAP1 DUP2 MSTORE DUP3 DUP6 ADD DUP11 DUP2 MSTORE PUSH1 0x60 DUP7 ADD DUP12 DUP2 MSTORE TIMESTAMP PUSH1 0x1 ADD PUSH1 0x80 DUP9 ADD SWAP1 DUP2 MSTORE DUP6 MLOAD PUSH4 0x624E65F PUSH1 0xE1 SHL DUP2 MSTORE SWAP8 MLOAD PUSH1 0x4 DUP10 ADD MSTORE SWAP3 MLOAD SWAP1 SWAP6 AND PUSH1 0x24 DUP8 ADD MSTORE MLOAD PUSH1 0x44 DUP7 ADD MSTORE SWAP3 MLOAD SWAP1 DUP5 ADD MSTORE SWAP1 MLOAD PUSH1 0x84 DUP4 ADD MSTORE DUP2 PUSH1 0xA4 DUP2 DUP10 PUSH2 0x104 CALLDATALOAD PUSH1 0x1 PUSH1 0x1 PUSH1 0xA0 SHL SUB AND GAS CALL DUP1 ISZERO PUSH2 0xCB4 JUMPI PUSH2 0xCBF JUMPI JUMPDEST POP PUSH1 0x40 MLOAD DUP1 PUSH1 0x80 DUP2 ADD LT PUSH8 0xFFFFFFFFFFFFFFFF PUSH1 0x80 DUP4 ADD GT OR PUSH2 0x3ED JUMPI PUSH1 0x80 DUP2 ADD PUSH1 0x40 MSTORE PUSH1 0x64 CALLDATALOAD DUP2 MSTORE PUSH1 0x1 PUSH1 0x1 PUSH1 0x80 SHL SUB PUSH1 0x20 DUP3 ADD ADDRESS DUP2 MSTORE DUP2 PUSH1 0x40 DUP5 ADD DUP2 DUP2 MSTORE PUSH1 0x1 PUSH1 0x1 PUSH1 0xA0 SHL SUB PUSH1 0x60 DUP7 ADD SWAP4 DUP4 DUP6 MSTORE PUSH1 0x40 MLOAD SWAP7 PUSH4 0xFC6F7865 PUSH1 0xE0 SHL DUP9 MSTORE MLOAD PUSH1 0x4 DUP9 ADD MSTORE MLOAD AND PUSH1 0x24 DUP7 ADD MSTORE MLOAD AND PUSH1 0x44 DUP5 ADD MSTORE MLOAD AND PUSH1 0x64 DUP3 ADD MSTORE PUSH1 0x40 DUP2 PUSH1 0x84 DUP2 DUP10 PUSH1 0x1 PUSH1 0x1 PUSH1 0xA0 SHL SUB PUSH2 0x104 CALLDATALOAD AND GAS CALL SWAP1 DUP2 ISZERO PUSH2 0xCB4 JUMPI DUP7 SWAP1 DUP8 SWAP3 PUSH2 0xC82 JUMPI JUMPDEST POP ISZERO SWAP1 DUP2 ISZERO SWAP2 PUSH2 0xC78 JUMPI JUMPDEST POP ISZERO PUSH2 0xC33 JUMPI PUSH2 0x897 PUSH1 0x44 CALLDATALOAD DUP6 PUSH2 0x1DD6 JUMP JUMPDEST DUP2 SWAP3 SWAP2 ISZERO DUP1 ISZERO PUSH2 0xC2B JUMPI JUMPDEST PUSH2 0xBE6 JUMPI DUP1 DUP4 GT ISZERO PUSH2 0xBC2 JUMPI SWAP2 PUSH2 0x8BF PUSH2 0x8CE SWAP4 PUSH1 0xE4 CALLDATALOAD SWAP3 PUSH2 0x186D JUMP JUMPDEST PUSH1 0x1 SHR PUSH1 0x84 CALLDATALOAD PUSH1 0x44 CALLDATALOAD DUP9 PUSH2 0x1EA7 JUMP JUMPDEST PUSH2 0x8DA PUSH1 0x44 CALLDATALOAD DUP5 PUSH2 0x1DD6 JUMP JUMPDEST SWAP3 SWAP1 SWAP2 PUSH2 0x931 PUSH1 0x40 MLOAD PUSH2 0x8EC DUP2 PUSH2 0x1695 JUMP JUMPDEST PUSH1 0x1 PUSH1 0x1 PUSH1 0xA0 SHL SUB DUP8 AND DUP2 MSTORE PUSH1 0x1 PUSH1 0x1 PUSH1 0xA0 SHL SUB PUSH1 0x44 CALLDATALOAD AND PUSH1 0x20 DUP3 ADD MSTORE PUSH1 0x40 MLOAD PUSH2 0x915 DUP2 PUSH2 0x1695 JUMP JUMPDEST DUP6 DUP2 MSTORE DUP7 PUSH1 0x20 DUP3 ADD MSTORE PUSH1 0x1 PUSH1 0x1 PUSH1 0xA0 SHL SUB PUSH2 0x104 CALLDATALOAD AND SWAP2 PUSH2 0x1CE0 JUMP JUMPDEST PUSH1 0x64 CALLDATALOAD ISZERO PUSH2 0xA35 JUMPI POP POP SWAP1 SWAP2 POP PUSH1 0x40 MLOAD SWAP2 DUP3 PUSH1 0xC0 DUP2 ADD LT PUSH8 0xFFFFFFFFFFFFFFFF PUSH1 0xC0 DUP6 ADD GT OR PUSH2 0x3ED JUMPI PUSH1 0xC0 DUP4 ADD PUSH1 0x40 MSTORE PUSH1 0x64 CALLDATALOAD DUP4 MSTORE PUSH1 0x20 DUP4 ADD SWAP2 DUP3 MSTORE PUSH1 0x40 DUP4 ADD SWAP1 DUP2 MSTORE PUSH1 0x60 DUP4 ADD DUP5 DUP2 MSTORE PUSH1 0x80 DUP5 ADD SWAP2 DUP6 DUP4 MSTORE PUSH1 0xA0 DUP6 ADD SWAP4 PUSH1 0x1 TIMESTAMP ADD DUP6 MSTORE PUSH1 0x40 MLOAD SWAP6 PUSH4 0x219F5D17 PUSH1 0xE0 SHL DUP8 MSTORE MLOAD PUSH1 0x4 DUP8 ADD MSTORE MLOAD PUSH1 0x24 DUP7 ADD MSTORE MLOAD PUSH1 0x44 DUP6 ADD MSTORE MLOAD PUSH1 0x64 DUP5 ADD MSTORE MLOAD PUSH1 0x84 DUP4 ADD MSTORE MLOAD PUSH1 0xA4 DUP3 ADD MSTORE PUSH1 0x60 DUP2 PUSH1 0xC4 DUP2 DUP6 PUSH1 0x1 PUSH1 0x1 PUSH1 0xA0 SHL SUB PUSH2 0x104 CALLDATALOAD AND GAS CALL DUP1 ISZERO PUSH2 0xA2A JUMPI PUSH2 0x9ED JUMPI JUMPDEST POP JUMPDEST PUSH1 0x1 DUP1 SSTORE PUSH1 0x40 MLOAD RETURN JUMPDEST PUSH1 0x60 DUP2 RETURNDATASIZE PUSH1 0x60 GT PUSH2 0xA22 JUMPI JUMPDEST DUP2 PUSH2 0xA06 PUSH1 0x60 SWAP4 DUP4 PUSH2 0x16B1 JUMP JUMPDEST DUP2 ADD SUB SLT PUSH2 0xA1E JUMPI PUSH2 0xA17 SWAP1 PUSH2 0x1FC0 JUMP JUMPDEST POP CODESIZE PUSH2 0x9E2 JUMP JUMPDEST POP DUP1 REVERT JUMPDEST RETURNDATASIZE SWAP2 POP PUSH2 0x9F9 JUMP JUMPDEST PUSH1 0x40 MLOAD RETURNDATASIZE DUP5 DUP3 RETURNDATACOPY RETURNDATASIZE SWAP1 REVERT JUMPDEST PUSH1 0x40 MLOAD SWAP5 DUP6 PUSH2 0x160 DUP2 ADD LT PUSH8 0xFFFFFFFFFFFFFFFF PUSH2 0x160 DUP9 ADD GT OR PUSH2 0x3ED JUMPI PUSH1 0x1 PUSH1 0x1 PUSH1 0xA0 SHL SUB SWAP1 PUSH2 0x160 DUP8 ADD PUSH1 0x40 MSTORE AND DUP6 MSTORE PUSH1 0x1 PUSH1 0x1 PUSH1 0xA0 SHL SUB PUSH1 0x44 CALLDATALOAD AND PUSH1 0x20 DUP7 ADD MSTORE PUSH1 0x84 CALLDATALOAD PUSH1 0x2 SIGNEXTEND PUSH1 0x40 DUP7 ADD MSTORE PUSH1 0x2 SIGNEXTEND PUSH1 0x60 DUP6 ADD MSTORE PUSH1 0x2 SIGNEXTEND PUSH1 0x80 DUP5 ADD MSTORE PUSH1 0xA0 DUP4 ADD MSTORE PUSH1 0xC0 DUP3 ADD MSTORE DUP2 PUSH1 0xE0 DUP3 ADD MSTORE DUP2 PUSH2 0x100 DUP3 ADD MSTORE ADDRESS PUSH2 0x120 DUP3 ADD MSTORE PUSH1 0x1 TIMESTAMP ADD PUSH2 0x140 DUP3 ADD MSTORE PUSH2 0x140 PUSH1 0x40 MLOAD SWAP2 PUSH4 0x6D70C415 PUSH1 0xE0 SHL DUP4 MSTORE PUSH1 0x1 PUSH1 0x1 PUSH1 0xA0 SHL SUB DUP2 MLOAD AND PUSH1 0x4 DUP5 ADD MSTORE PUSH1 0x1 PUSH1 0x1 PUSH1 0xA0 SHL SUB PUSH1 0x20 DUP3 ADD MLOAD AND PUSH1 0x24 DUP5 ADD MSTORE PUSH1 0x40 DUP2 ADD MLOAD PUSH1 0x2 SIGNEXTEND PUSH1 0x44 DUP5 ADD MSTORE PUSH1 0x60 DUP2 ADD MLOAD PUSH1 0x2 SIGNEXTEND PUSH1 0x64 DUP5 ADD MSTORE PUSH1 0x80 DUP2 ADD MLOAD PUSH1 0x2 SIGNEXTEND PUSH1 0x84 DUP5 ADD MSTORE PUSH1 0xA0 DUP2 ADD MLOAD PUSH1 0xA4 DUP5 ADD MSTORE PUSH1 0xC0 DUP2 ADD MLOAD PUSH1 0xC4 DUP5 ADD MSTORE PUSH1 0xE0 DUP2 ADD MLOAD PUSH1 0xE4 DUP5 ADD MSTORE PUSH2 0x100 DUP2 ADD MLOAD PUSH2 0x104 DUP5 ADD MSTORE PUSH1 0x1 PUSH1 0x1 PUSH1 0xA0 SHL SUB PUSH2 0x120 DUP3 ADD MLOAD AND PUSH2 0x124 DUP5 ADD MSTORE ADD MLOAD PUSH2 0x144 DUP3 ADD MSTORE PUSH1 0x80 DUP2 PUSH2 0x164 DUP2 DUP6 PUSH1 0x1 PUSH1 0x1 PUSH1 0xA0 SHL SUB PUSH2 0x104 CALLDATALOAD AND GAS CALL DUP1 ISZERO PUSH2 0xA2A JUMPI PUSH2 0xB86 JUMPI JUMPDEST POP PUSH2 0x9E4 JUMP JUMPDEST PUSH1 0x80 DUP2 RETURNDATASIZE PUSH1 0x80 GT PUSH2 0xBBA JUMPI JUMPDEST DUP2 PUSH2 0xB9F PUSH1 0x80 SWAP4 DUP4 PUSH2 0x16B1 JUMP JUMPDEST DUP2 ADD SUB SLT PUSH2 0xA1E JUMPI PUSH1 0x20 PUSH2 0xBB3 SWAP2 ADD PUSH2 0x1FC0 JUMP JUMPDEST POP CODESIZE PUSH2 0xB80 JUMP JUMPDEST RETURNDATASIZE SWAP2 POP PUSH2 0xB92 JUMP JUMPDEST PUSH2 0xBD2 PUSH2 0xBE1 SWAP4 PUSH1 0xE4 CALLDATALOAD SWAP3 PUSH2 0x186D JUMP JUMPDEST PUSH1 0x1 SHR PUSH1 0x84 CALLDATALOAD DUP8 PUSH1 0x44 CALLDATALOAD PUSH2 0x1EA7 JUMP JUMPDEST PUSH2 0x8CE JUMP JUMPDEST PUSH1 0x40 MLOAD PUSH3 0x461BCD PUSH1 0xE5 SHL DUP2 MSTORE PUSH1 0x20 PUSH1 0x4 DUP3 ADD MSTORE PUSH1 0x11 PUSH1 0x24 DUP3 ADD MSTORE PUSH32 0x4E6F20746F6B656E7320746F2073776170000000000000000000000000000000 PUSH1 0x44 DUP3 ADD MSTORE PUSH1 0x64 SWAP1 REVERT JUMPDEST POP DUP1 ISZERO PUSH2 0x8A2 JUMP JUMPDEST PUSH1 0x40 MLOAD PUSH3 0x461BCD PUSH1 0xE5 SHL DUP2 MSTORE PUSH1 0x20 PUSH1 0x4 DUP3 ADD MSTORE PUSH1 0x13 PUSH1 0x24 DUP3 ADD MSTORE PUSH32 0x4E6F20746F6B656E7320636F6C6C656374656400000000000000000000000000 PUSH1 0x44 DUP3 ADD MSTORE PUSH1 0x64 SWAP1 REVERT JUMPDEST SWAP1 POP ISZERO ISZERO CODESIZE PUSH2 0x885 JUMP JUMPDEST SWAP1 POP PUSH2 0xCA6 SWAP2 POP PUSH1 0x40 RETURNDATASIZE PUSH1 0x40 GT PUSH2 0xCAD JUMPI JUMPDEST PUSH2 0xC9E DUP2 DUP4 PUSH2 0x16B1 JUMP JUMPDEST DUP2 ADD SWAP1 PUSH2 0x19E8 JUMP JUMPDEST SWAP1 CODESIZE PUSH2 0x87A JUMP JUMPDEST POP RETURNDATASIZE PUSH2 0xC94 JUMP JUMPDEST PUSH1 0x40 MLOAD RETURNDATASIZE DUP9 DUP3 RETURNDATACOPY RETURNDATASIZE SWAP1 REVERT JUMPDEST PUSH2 0xCD7 SWAP1 PUSH1 0x40 RETURNDATASIZE PUSH1 0x40 GT PUSH2 0xCAD JUMPI PUSH2 0xC9E DUP2 DUP4 PUSH2 0x16B1 JUMP JUMPDEST POP PUSH2 0x7DB JUMP JUMPDEST PUSH4 0x4E487B71 PUSH1 0xE0 SHL DUP7 MSTORE PUSH1 0x11 PUSH1 0x4 MSTORE PUSH1 0x24 DUP7 REVERT JUMPDEST PUSH1 0x40 MLOAD PUSH3 0x461BCD PUSH1 0xE5 SHL DUP2 MSTORE PUSH1 0x20 PUSH1 0x4 DUP3 ADD MSTORE PUSH1 0x27 PUSH1 0x24 DUP3 ADD MSTORE PUSH32 0x53616665436173743A2076616C756520646F65736E27742066697420696E2031 PUSH1 0x44 DUP3 ADD MSTORE PUSH7 0x32382062697473 PUSH1 0xC8 SHL PUSH1 0x64 DUP3 ADD MSTORE PUSH1 0x84 SWAP1 REVERT JUMPDEST SWAP1 POP PUSH2 0x140 DUP2 RETURNDATASIZE PUSH2 0x140 GT PUSH2 0xDDC JUMPI JUMPDEST DUP2 PUSH2 0xD64 PUSH2 0x140 SWAP4 DUP4 PUSH2 0x16B1 JUMP JUMPDEST DUP2 ADD SUB SLT PUSH2 0xDD8 JUMPI PUSH2 0xD75 DUP2 PUSH2 0x1FD4 JUMP JUMPDEST POP PUSH2 0xD82 PUSH1 0x20 DUP3 ADD PUSH2 0x1FD4 JUMP JUMPDEST POP PUSH2 0xD8F PUSH1 0x40 DUP3 ADD PUSH2 0x1FE8 JUMP JUMPDEST POP PUSH2 0xD9C PUSH1 0x60 DUP3 ADD PUSH2 0x1FE8 JUMP JUMPDEST POP PUSH2 0xDA9 PUSH1 0x80 DUP3 ADD PUSH2 0x1FE8 JUMP JUMPDEST POP PUSH2 0xDD1 PUSH2 0x120 PUSH2 0xDBC PUSH1 0xA0 DUP5 ADD PUSH2 0x1FC0 JUMP JUMPDEST SWAP3 PUSH2 0xDCA PUSH2 0x100 DUP3 ADD PUSH2 0x1FC0 JUMP JUMPDEST POP ADD PUSH2 0x1FC0 JUMP JUMPDEST POP CODESIZE PUSH2 0x71C JUMP JUMPDEST DUP6 DUP1 REVERT JUMPDEST RETURNDATASIZE SWAP2 POP PUSH2 0xD56 JUMP JUMPDEST PUSH1 0x0 DUP1 REVERT JUMPDEST DUP5 DUP1 REVERT JUMPDEST POP CALLVALUE PUSH2 0x181 JUMPI PUSH2 0xDFC CALLDATASIZE PUSH2 0x1749 JUMP JUMPDEST SWAP2 SWAP1 PUSH2 0xE06 PUSH2 0x177D JUMP JUMPDEST PUSH1 0x1 PUSH1 0x1 PUSH1 0xA0 SHL SUB DUP1 SWAP4 AND SWAP3 DUP4 ISZERO PUSH2 0xE8C JUMPI DUP5 SWAP3 AND SWAP3 DUP4 EXTCODESIZE ISZERO PUSH2 0xE88 JUMPI PUSH1 0x64 SWAP1 DUP4 PUSH1 0x40 MLOAD SWAP6 DUP7 SWAP5 DUP6 SWAP4 PUSH4 0x21421707 PUSH1 0xE1 SHL DUP6 MSTORE ADDRESS PUSH1 0x4 DUP7 ADD MSTORE PUSH1 0x24 DUP6 ADD MSTORE PUSH1 0x44 DUP5 ADD MSTORE GAS CALL DUP1 ISZERO PUSH2 0xA2A JUMPI PUSH2 0xE5C JUMPI JUMPDEST POP PUSH1 0x40 MLOAD RETURN JUMPDEST PUSH8 0xFFFFFFFFFFFFFFFF DUP2 GT PUSH2 0xE74 JUMPI PUSH1 0x40 MSTORE CODESIZE PUSH2 0xE56 JUMP JUMPDEST PUSH4 0x4E487B71 PUSH1 0xE0 SHL DUP3 MSTORE PUSH1 0x41 PUSH1 0x4 MSTORE PUSH1 0x24 DUP3 REVERT JUMPDEST DUP3 DUP1 REVERT JUMPDEST PUSH1 0x40 MLOAD PUSH3 0x461BCD PUSH1 0xE5 SHL DUP2 MSTORE PUSH1 0x20 PUSH1 0x4 DUP3 ADD MSTORE PUSH1 0x17 PUSH1 0x24 DUP3 ADD MSTORE PUSH32 0x4E6577206F776E65722063616E2774206265207A65726F000000000000000000 PUSH1 0x44 DUP3 ADD MSTORE PUSH1 0x64 SWAP1 REVERT JUMPDEST POP CALLVALUE PUSH2 0x181 JUMPI PUSH1 0x20 CALLDATASIZE PUSH1 0x3 NOT ADD SLT PUSH2 0x181 JUMPI PUSH1 0x4 CALLDATALOAD PUSH2 0xEEE PUSH2 0x177D JUMP JUMPDEST PUSH2 0x3E8 DUP2 GT PUSH2 0xEFF JUMPI PUSH1 0x4 SSTORE PUSH1 0x40 MLOAD RETURN JUMPDEST PUSH1 0x40 MLOAD PUSH3 0x461BCD PUSH1 0xE5 SHL DUP2 MSTORE PUSH1 0x20 PUSH1 0x4 DUP3 ADD MSTORE PUSH1 0x10 PUSH1 0x24 DUP3 ADD MSTORE PUSH32 0x4D61782031302520736C69707061676500000000000000000000000000000000 PUSH1 0x44 DUP3 ADD MSTORE PUSH1 0x64 SWAP1 REVERT JUMPDEST POP CALLVALUE PUSH2 0x181 JUMPI PUSH1 0x20 CALLDATASIZE PUSH1 0x3 NOT ADD SLT PUSH2 0x181 JUMPI PUSH1 0x4 CALLDATALOAD PUSH2 0xF61 PUSH2 0x177D JUMP JUMPDEST DUP1 ISZERO PUSH2 0xF6F JUMPI PUSH1 0x3 SSTORE PUSH1 0x40 MLOAD RETURN JUMPDEST PUSH1 0x40 MLOAD PUSH3 0x461BCD PUSH1 0xE5 SHL DUP2 MSTORE PUSH1 0x20 PUSH1 0x4 DUP3 ADD MSTORE PUSH1 0x15 PUSH1 0x24 DUP3 ADD MSTORE PUSH32 0x6D6178206665652063616E2774206265207A65726F0000000000000000000000 PUSH1 0x44 DUP3 ADD MSTORE PUSH1 0x64 SWAP1 REVERT JUMPDEST POP CALLVALUE PUSH2 0x181 JUMPI PUSH2 0x140 CALLDATASIZE PUSH1 0x3 NOT ADD SLT PUSH2 0x181 JUMPI PUSH2 0xFCF PUSH2 0x1655 JUMP JUMPDEST PUSH2 0xFD7 PUSH2 0x166B JUMP JUMPDEST SWAP1 PUSH1 0x44 CALLDATALOAD SWAP2 PUSH2 0xFFFF DUP4 AND DUP4 SUB PUSH2 0x150F JUMPI PUSH1 0xA4 CALLDATALOAD PUSH8 0xFFFFFFFFFFFFFFFF DUP2 GT PUSH2 0xDE9 JUMPI PUSH2 0x1007 SWAP1 CALLDATASIZE SWAP1 PUSH1 0x4 ADD PUSH2 0x16EB JUMP JUMPDEST PUSH1 0xC4 CALLDATALOAD PUSH8 0xFFFFFFFFFFFFFFFF DUP2 GT PUSH2 0xDD8 JUMPI PUSH2 0x1027 SWAP1 CALLDATASIZE SWAP1 PUSH1 0x4 ADD PUSH2 0x16EB JUMP JUMPDEST SWAP4 PUSH1 0xE4 CALLDATALOAD SWAP5 PUSH8 0xFFFFFFFFFFFFFFFF DUP7 GT PUSH2 0x1593 JUMPI PUSH1 0x60 PUSH1 0x3 NOT DUP8 CALLDATASIZE SUB ADD SLT PUSH2 0x1593 JUMPI PUSH1 0x40 MLOAD SWAP6 PUSH1 0x60 DUP8 ADD DUP8 DUP2 LT PUSH8 0xFFFFFFFFFFFFFFFF DUP3 GT OR PUSH2 0x15D8 JUMPI PUSH1 0x40 MSTORE DUP1 PUSH1 0x4 ADD CALLDATALOAD PUSH8 0xFFFFFFFFFFFFFFFF DUP2 GT PUSH2 0x15B7 JUMPI PUSH2 0x108B SWAP1 PUSH1 0x4 CALLDATASIZE SWAP2 DUP5 ADD ADD PUSH2 0x16EB JUMP JUMPDEST DUP8 MSTORE PUSH1 0x24 DUP2 ADD CALLDATALOAD PUSH8 0xFFFFFFFFFFFFFFFF DUP2 GT PUSH2 0x15B7 JUMPI DUP2 ADD CALLDATASIZE PUSH1 0x23 DUP3 ADD SLT ISZERO PUSH2 0x15B7 JUMPI PUSH1 0x4 DUP2 ADD CALLDATALOAD PUSH2 0x10BC DUP2 PUSH2 0x16D3 JUMP JUMPDEST SWAP2 PUSH2 0x10CA PUSH1 0x40 MLOAD SWAP4 DUP5 PUSH2 0x16B1 JUMP JUMPDEST DUP2 DUP4 MSTORE PUSH1 0x24 PUSH1 0x20 DUP5 ADD SWAP3 PUSH1 0x5 SHL DUP3 ADD ADD SWAP1 CALLDATASIZE DUP3 GT PUSH2 0x15B3 JUMPI PUSH1 0x24 ADD SWAP2 JUMPDEST DUP2 DUP4 LT PUSH2 0x15BB JUMPI POP POP POP PUSH1 0x20 DUP9 ADD MSTORE PUSH1 0x44 DUP2 ADD CALLDATALOAD SWAP1 PUSH8 0xFFFFFFFFFFFFFFFF DUP3 GT PUSH2 0x15B7 JUMPI CALLDATASIZE PUSH1 0x23 DUP4 DUP4 ADD ADD SLT ISZERO PUSH2 0x15B7 JUMPI PUSH1 0x4 DUP3 DUP3 ADD ADD CALLDATALOAD SWAP1 PUSH2 0x1129 DUP3 PUSH2 0x16D3 JUMP JUMPDEST SWAP3 PUSH2 0x1137 PUSH1 0x40 MLOAD SWAP5 DUP6 PUSH2 0x16B1 JUMP JUMPDEST DUP3 DUP5 MSTORE PUSH1 0x20 DUP5 ADD SWAP2 CALLDATASIZE PUSH1 0x24 DUP6 PUSH1 0x5 SHL DUP5 DUP5 ADD ADD ADD GT PUSH2 0x15B3 JUMPI DUP1 DUP3 ADD PUSH1 0x24 ADD SWAP3 SWAP2 JUMPDEST PUSH1 0x24 DUP6 PUSH1 0x5 SHL DUP3 DUP5 ADD ADD ADD DUP5 LT PUSH2 0x1597 JUMPI POP POP POP POP POP PUSH1 0x40 DUP8 ADD MSTORE PUSH8 0xFFFFFFFFFFFFFFFF PUSH2 0x104 CALLDATALOAD GT PUSH2 0x1593 JUMPI PUSH2 0x1E0 PUSH2 0x104 CALLDATALOAD CALLDATASIZE SUB PUSH1 0x3 NOT ADD SLT PUSH2 0x1593 JUMPI PUSH1 0x1 PUSH1 0x1 PUSH1 0xA0 SHL SUB PUSH2 0x124 CALLDATALOAD AND PUSH2 0x124 CALLDATALOAD SUB PUSH2 0x1593 JUMPI PUSH2 0x11B6 PUSH2 0x188E JUMP JUMPDEST PUSH2 0x11BE PUSH2 0x177D JUMP JUMPDEST PUSH2 0x11CC PUSH1 0x3 SLOAD GASPRICE GT ISZERO PUSH2 0x17D5 JUMP JUMPDEST PUSH1 0x1 PUSH1 0x1 PUSH1 0xA0 SHL SUB PUSH2 0x124 CALLDATALOAD AND DUP8 MSTORE PUSH1 0x2 PUSH1 0x20 MSTORE PUSH2 0x11F0 PUSH1 0xFF PUSH1 0x40 DUP10 KECCAK256 SLOAD AND PUSH2 0x1821 JUMP JUMPDEST PUSH1 0x64 NOT TIMESTAMP GT PUSH2 0x157F JUMPI PUSH1 0x40 SWAP2 PUSH2 0x1270 PUSH2 0xFFFF SWAP3 PUSH2 0x125E DUP6 MLOAD SWAP7 DUP8 SWAP6 DUP7 SWAP6 PUSH4 0x6110ACDB PUSH1 0xE1 SHL DUP8 MSTORE PUSH1 0x1 PUSH1 0x1 PUSH1 0xA0 SHL SUB DUP13 AND PUSH1 0x4 DUP9 ADD MSTORE PUSH1 0x1 PUSH1 0x1 PUSH1 0xA0 SHL SUB DUP12 AND PUSH1 0x24 DUP9 ADD MSTORE AND PUSH1 0x44 DUP7 ADD MSTORE PUSH1 0x64 CALLDATALOAD PUSH1 0x64 DUP7 ADD MSTORE PUSH1 0x84 CALLDATALOAD PUSH1 0x84 DUP7 ADD MSTORE PUSH2 0x120 PUSH1 0xA4 DUP7 ADD MSTORE PUSH2 0x124 DUP6 ADD SWAP1 PUSH2 0x19FE JUMP JUMPDEST DUP4 DUP2 SUB PUSH1 0x3 NOT ADD PUSH1 0xC4 DUP6 ADD MSTORE SWAP1 PUSH2 0x19FE JUMP JUMPDEST ADDRESS PUSH1 0xE4 DUP4 ADD MSTORE PUSH1 0x64 TIMESTAMP ADD PUSH2 0x104 DUP4 ADD MSTORE SUB DUP2 DUP9 PUSH1 0x1 PUSH1 0x1 PUSH1 0xA0 SHL SUB PUSH2 0x124 CALLDATALOAD AND GAS CALL DUP1 ISZERO PUSH2 0x1574 JUMPI PUSH2 0x1556 JUMPI JUMPDEST POP PUSH2 0x12BA PUSH1 0x1 PUSH1 0x1 PUSH1 0xA0 SHL SUB DUP3 AND PUSH1 0x1 PUSH1 0x1 PUSH1 0xA0 SHL SUB DUP5 AND PUSH2 0x1DD6 JUMP JUMPDEST SWAP4 SWAP1 SWAP2 DUP3 ISZERO DUP1 ISZERO PUSH2 0x154E JUMPI JUMPDEST PUSH2 0xBE6 JUMPI PUSH2 0x1310 SWAP5 PUSH1 0x1 PUSH1 0x1 PUSH1 0xA0 SHL SUB SWAP4 DUP5 SWAP4 DUP3 DUP3 GT ISZERO PUSH2 0x152F JUMPI PUSH2 0x1308 SWAP3 PUSH2 0x1303 PUSH2 0x124 CALLDATALOAD SWAP4 PUSH2 0x12FA PUSH1 0x84 CALLDATALOAD SWAP4 DUP3 PUSH2 0x18E4 JUMP JUMPDEST PUSH1 0x1 SHR SWAP1 PUSH2 0x186D JUMP JUMPDEST PUSH2 0x1A32 JUMP JUMPDEST AND SWAP2 AND PUSH2 0x1DD6 JUMP JUMPDEST POP POP PUSH1 0x40 MLOAD PUSH4 0x51E3938D PUSH1 0xE1 SHL DUP2 MSTORE PUSH1 0x20 PUSH1 0x4 DUP3 ADD MSTORE PUSH2 0x204 DUP2 ADD DUP3 DUP3 PUSH2 0x104 CALLDATALOAD PUSH1 0x4 ADD PUSH1 0x1 PUSH1 0x1 PUSH1 0xA0 SHL SUB PUSH2 0x1345 DUP3 PUSH2 0x1681 JUMP JUMPDEST AND PUSH1 0x24 DUP4 ADD MSTORE PUSH1 0x1 PUSH1 0x1 PUSH1 0xA0 SHL SUB PUSH2 0x1362 PUSH1 0x24 PUSH2 0x104 CALLDATALOAD ADD PUSH2 0x1681 JUMP JUMPDEST AND PUSH1 0x44 DUP4 ADD MSTORE PUSH1 0x44 PUSH2 0x104 CALLDATALOAD ADD CALLDATALOAD PUSH1 0x64 DUP4 ADD MSTORE PUSH1 0x64 PUSH2 0x104 CALLDATALOAD ADD CALLDATALOAD PUSH1 0x84 DUP4 ADD MSTORE PUSH1 0x84 PUSH2 0x104 CALLDATALOAD ADD CALLDATALOAD PUSH1 0xA4 DUP4 ADD MSTORE PUSH1 0xA4 PUSH2 0x104 CALLDATALOAD ADD CALLDATALOAD PUSH1 0xC4 DUP4 ADD MSTORE PUSH1 0xC4 PUSH2 0x104 CALLDATALOAD ADD CALLDATALOAD PUSH1 0xE4 DUP4 ADD MSTORE PUSH1 0xE4 PUSH2 0x104 CALLDATALOAD ADD CALLDATALOAD PUSH2 0x104 DUP4 ADD MSTORE PUSH2 0x104 DUP1 CALLDATALOAD ADD CALLDATALOAD PUSH2 0x124 DUP4 ADD MSTORE PUSH2 0x13D5 PUSH2 0x124 PUSH2 0x104 CALLDATALOAD ADD DUP3 PUSH2 0x1C6A JUMP JUMPDEST DUP1 PUSH2 0x144 SWAP7 SWAP3 SWAP7 SWAP3 PUSH2 0x1E0 DUP5 DUP8 ADD MSTORE MSTORE PUSH2 0x224 DUP5 ADD SWAP6 SWAP1 DUP6 JUMPDEST DUP2 DUP2 LT PUSH2 0x1513 JUMPI POP POP POP PUSH2 0x147A PUSH1 0x1 PUSH1 0x1 PUSH1 0xA0 SHL SUB PUSH2 0x1467 PUSH2 0x145C DUP7 SWAP8 SWAP9 PUSH2 0x144A PUSH2 0x143E SWAP8 PUSH2 0x1423 DUP7 SWAP9 PUSH2 0x104 CALLDATALOAD ADD DUP3 PUSH2 0x1C6A JUMP JUMPDEST SWAP10 SWAP1 SWAP4 PUSH1 0x23 NOT SWAP11 DUP12 SWAP6 DUP14 PUSH2 0x164 DUP1 SWAP9 DUP3 DUP7 SUB ADD SWAP2 ADD MSTORE PUSH2 0x1C9F JUMP JUMPDEST SWAP3 PUSH2 0x104 CALLDATALOAD ADD SWAP1 PUSH2 0x1C6A JUMP JUMPDEST SWAP1 PUSH2 0x184 SWAP9 DUP11 DUP5 SUB ADD DUP10 DUP12 ADD MSTORE PUSH2 0x1C9F JUMP JUMPDEST SWAP5 PUSH2 0x104 CALLDATALOAD ADD PUSH2 0x1681 JUMP JUMPDEST AND PUSH2 0x1A4 SWAP1 DUP2 DUP7 ADD MSTORE PUSH2 0x104 CALLDATALOAD ADD PUSH2 0x1681 JUMP JUMPDEST AND PUSH2 0x1C4 SWAP1 DUP2 DUP5 ADD MSTORE PUSH2 0x104 CALLDATALOAD ADD CALLDATALOAD PUSH2 0x1E4 DUP4 ADD MSTORE SUB DUP2 DUP4 PUSH1 0x1 PUSH1 0x1 PUSH1 0xA0 SHL SUB PUSH2 0x124 CALLDATALOAD AND GAS CALL DUP1 ISZERO PUSH2 0xA2A JUMPI PUSH2 0x14B5 JUMPI POP PUSH1 0x1 DUP1 SSTORE PUSH1 0x40 MLOAD RETURN JUMPDEST RETURNDATASIZE DUP1 DUP4 DUP4 RETURNDATACOPY PUSH2 0x14C4 DUP2 DUP4 PUSH2 0x16B1 JUMP JUMPDEST DUP2 ADD PUSH1 0xC0 DUP3 DUP3 SUB SLT PUSH2 0xE88 JUMPI PUSH1 0x80 DUP3 ADD MLOAD PUSH8 0xFFFFFFFFFFFFFFFF DUP2 GT PUSH2 0x150F JUMPI DUP2 PUSH2 0x14F0 SWAP2 DUP5 ADD PUSH2 0x1C0C JUMP JUMPDEST POP PUSH1 0xA0 DUP3 ADD MLOAD PUSH8 0xFFFFFFFFFFFFFFFF DUP2 GT PUSH2 0x150F JUMPI PUSH2 0xA17 SWAP3 ADD PUSH2 0x1C0C JUMP JUMPDEST DUP4 DUP1 REVERT JUMPDEST DUP3 CALLDATALOAD DUP9 MSTORE PUSH1 0x20 SWAP8 DUP9 ADD SWAP8 DUP11 SWAP8 POP DUP10 SWAP7 POP SWAP1 SWAP3 ADD SWAP2 PUSH1 0x1 ADD PUSH2 0x13EE JUMP JUMPDEST PUSH2 0x1549 SWAP3 SWAP2 PUSH2 0x1303 PUSH2 0x124 CALLDATALOAD SWAP4 PUSH2 0x12FA DUP2 PUSH1 0x64 CALLDATALOAD SWAP5 PUSH2 0x18E4 JUMP JUMPDEST PUSH2 0x1308 JUMP JUMPDEST POP DUP5 ISZERO PUSH2 0x12C6 JUMP JUMPDEST PUSH2 0x156E SWAP1 PUSH1 0x40 RETURNDATASIZE PUSH1 0x40 GT PUSH2 0xCAD JUMPI PUSH2 0xC9E DUP2 DUP4 PUSH2 0x16B1 JUMP JUMPDEST POP PUSH2 0x129D JUMP JUMPDEST PUSH1 0x40 MLOAD RETURNDATASIZE DUP8 DUP3 RETURNDATACOPY RETURNDATASIZE SWAP1 REVERT JUMPDEST PUSH4 0x4E487B71 PUSH1 0xE0 SHL DUP8 MSTORE PUSH1 0x11 PUSH1 0x4 MSTORE PUSH1 0x24 DUP8 REVERT JUMPDEST DUP7 DUP1 REVERT JUMPDEST PUSH1 0x20 DUP1 PUSH1 0x24 SWAP5 PUSH2 0x15A6 DUP8 PUSH2 0x1681 JUMP JUMPDEST DUP2 MSTORE ADD SWAP5 ADD SWAP4 SWAP3 POP PUSH2 0x1159 JUMP JUMPDEST DUP12 DUP1 REVERT JUMPDEST DUP9 DUP1 REVERT JUMPDEST DUP3 CALLDATALOAD PUSH1 0x3 DUP2 LT ISZERO PUSH2 0x15D4 JUMPI DUP2 MSTORE PUSH1 0x20 SWAP3 DUP4 ADD SWAP3 ADD PUSH2 0x10E7 JUMP JUMPDEST DUP13 DUP1 REVERT JUMPDEST PUSH4 0x4E487B71 PUSH1 0xE0 SHL DUP10 MSTORE PUSH1 0x41 PUSH1 0x4 MSTORE PUSH1 0x24 DUP10 REVERT JUMPDEST SWAP1 POP CALLVALUE PUSH2 0xA1E JUMPI PUSH1 0x80 CALLDATASIZE PUSH1 0x3 NOT ADD SLT PUSH2 0xA1E JUMPI PUSH2 0x1607 PUSH2 0x1655 JUMP JUMPDEST POP PUSH2 0x1610 PUSH2 0x166B JUMP JUMPDEST POP PUSH1 0x64 CALLDATALOAD PUSH8 0xFFFFFFFFFFFFFFFF DUP1 DUP3 GT PUSH2 0x150F JUMPI CALLDATASIZE PUSH1 0x23 DUP4 ADD SLT ISZERO PUSH2 0x150F JUMPI DUP2 PUSH1 0x4 ADD CALLDATALOAD SWAP1 DUP2 GT PUSH2 0x150F JUMPI CALLDATASIZE SWAP2 ADD PUSH1 0x24 ADD GT PUSH2 0xA1E JUMPI PUSH4 0xA85BD01 PUSH1 0xE1 SHL DUP2 MSTORE PUSH1 0x20 SWAP1 RETURN JUMPDEST PUSH1 0x4 CALLDATALOAD SWAP1 PUSH1 0x1 PUSH1 0x1 PUSH1 0xA0 SHL SUB DUP3 AND DUP3 SUB PUSH2 0xDE4 JUMPI JUMP JUMPDEST PUSH1 0x24 CALLDATALOAD SWAP1 PUSH1 0x1 PUSH1 0x1 PUSH1 0xA0 SHL SUB DUP3 AND DUP3 SUB PUSH2 0xDE4 JUMPI JUMP JUMPDEST CALLDATALOAD SWAP1 PUSH1 0x1 PUSH1 0x1 PUSH1 0xA0 SHL SUB DUP3 AND DUP3 SUB PUSH2 0xDE4 JUMPI JUMP JUMPDEST PUSH1 0x40 DUP2 ADD SWAP1 DUP2 LT PUSH8 0xFFFFFFFFFFFFFFFF DUP3 GT OR PUSH2 0x3ED JUMPI PUSH1 0x40 MSTORE JUMP JUMPDEST SWAP1 PUSH1 0x1F DUP1 NOT SWAP2 ADD AND DUP2 ADD SWAP1 DUP2 LT PUSH8 0xFFFFFFFFFFFFFFFF DUP3 GT OR PUSH2 0x3ED JUMPI PUSH1 0x40 MSTORE JUMP JUMPDEST PUSH8 0xFFFFFFFFFFFFFFFF DUP2 GT PUSH2 0x3ED JUMPI PUSH1 0x5 SHL PUSH1 0x20 ADD SWAP1 JUMP JUMPDEST DUP2 PUSH1 0x1F DUP3 ADD SLT ISZERO PUSH2 0xDE4 JUMPI DUP1 CALLDATALOAD SWAP2 PUSH2 0x1702 DUP4 PUSH2 0x16D3 JUMP JUMPDEST SWAP3 PUSH2 0x1710 PUSH1 0x40 MLOAD SWAP5 DUP6 PUSH2 0x16B1 JUMP JUMPDEST DUP1 DUP5 MSTORE PUSH1 0x20 SWAP3 DUP4 DUP1 DUP7 ADD SWAP3 PUSH1 0x5 SHL DUP3 ADD ADD SWAP3 DUP4 GT PUSH2 0xDE4 JUMPI DUP4 ADD SWAP1 JUMPDEST DUP3 DUP3 LT PUSH2 0x173A JUMPI POP POP POP POP SWAP1 JUMP JUMPDEST DUP2 CALLDATALOAD DUP2 MSTORE SWAP1 DUP4 ADD SWAP1 DUP4 ADD PUSH2 0x172C JUMP JUMPDEST PUSH1 0x60 SWAP1 PUSH1 0x3 NOT ADD SLT PUSH2 0xDE4 JUMPI PUSH1 0x1 PUSH1 0x1 PUSH1 0xA0 SHL SUB PUSH1 0x4 CALLDATALOAD DUP2 DUP2 AND DUP2 SUB PUSH2 0xDE4 JUMPI SWAP2 PUSH1 0x24 CALLDATALOAD SWAP2 PUSH1 0x44 CALLDATALOAD SWAP1 DUP2 AND DUP2 SUB PUSH2 0xDE4 JUMPI SWAP1 JUMP JUMPDEST PUSH1 0x1 PUSH1 0x1 PUSH1 0xA0 SHL SUB PUSH1 0x0 SLOAD AND CALLER SUB PUSH2 0x1791 JUMPI JUMP JUMPDEST PUSH1 0x64 PUSH1 0x40 MLOAD PUSH3 0x461BCD PUSH1 0xE5 SHL DUP2 MSTORE PUSH1 0x20 PUSH1 0x4 DUP3 ADD MSTORE PUSH1 0x20 PUSH1 0x24 DUP3 ADD MSTORE PUSH32 0x4F776E61626C653A2063616C6C6572206973206E6F7420746865206F776E6572 PUSH1 0x44 DUP3 ADD MSTORE REVERT JUMPDEST ISZERO PUSH2 0x17DC JUMPI JUMP JUMPDEST PUSH1 0x40 MLOAD PUSH3 0x461BCD PUSH1 0xE5 SHL DUP2 MSTORE PUSH1 0x20 PUSH1 0x4 DUP3 ADD MSTORE PUSH1 0x12 PUSH1 0x24 DUP3 ADD MSTORE PUSH32 0x47617320707269636520746F6F20686967680000000000000000000000000000 PUSH1 0x44 DUP3 ADD MSTORE PUSH1 0x64 SWAP1 REVERT JUMPDEST ISZERO PUSH2 0x1828 JUMPI JUMP JUMPDEST PUSH1 0x40 MLOAD PUSH3 0x461BCD PUSH1 0xE5 SHL DUP2 MSTORE PUSH1 0x20 PUSH1 0x4 DUP3 ADD MSTORE PUSH1 0x14 PUSH1 0x24 DUP3 ADD MSTORE PUSH32 0x526F7574657220646F65736E2774206578697374000000000000000000000000 PUSH1 0x44 DUP3 ADD MSTORE PUSH1 0x64 SWAP1 REVERT JUMPDEST DUP2 DUP2 LT PUSH2 0x1878 JUMPI SUB SWAP1 JUMP JUMPDEST PUSH4 0x4E487B71 PUSH1 0xE0 SHL PUSH1 0x0 MSTORE PUSH1 0x11 PUSH1 0x4 MSTORE PUSH1 0x24 PUSH1 0x0 REVERT JUMPDEST PUSH1 0x2 PUSH1 0x1 SLOAD EQ PUSH2 0x189F JUMPI PUSH1 0x2 PUSH1 0x1 SSTORE JUMP JUMPDEST PUSH1 0x40 MLOAD PUSH3 0x461BCD PUSH1 0xE5 SHL DUP2 MSTORE PUSH1 0x20 PUSH1 0x4 DUP3 ADD MSTORE PUSH1 0x1F PUSH1 0x24 DUP3 ADD MSTORE PUSH32 0x5265656E7472616E637947756172643A207265656E7472616E742063616C6C00 PUSH1 0x44 DUP3 ADD MSTORE PUSH1 0x64 SWAP1 REVERT JUMPDEST DUP2 NOT DUP2 GT PUSH2 0x1878 JUMPI ADD SWAP1 JUMP JUMPDEST SWAP1 DUP2 PUSH1 0x20 SWAP2 SUB SLT PUSH2 0xDE4 JUMPI MLOAD DUP1 ISZERO ISZERO DUP2 SUB PUSH2 0xDE4 JUMPI SWAP1 JUMP JUMPDEST SWAP2 SWAP3 SWAP1 ISZERO PUSH2 0x196A JUMPI POP DUP2 MLOAD ISZERO PUSH2 0x191C JUMPI POP SWAP1 JUMP JUMPDEST EXTCODESIZE ISZERO PUSH2 0x1925 JUMPI SWAP1 JUMP JUMPDEST PUSH1 0x40 MLOAD PUSH3 0x461BCD PUSH1 0xE5 SHL DUP2 MSTORE PUSH1 0x20 PUSH1 0x4 DUP3 ADD MSTORE PUSH1 0x1D PUSH1 0x24 DUP3 ADD MSTORE PUSH32 0x416464726573733A2063616C6C20746F206E6F6E2D636F6E7472616374000000 PUSH1 0x44 DUP3 ADD MSTORE PUSH1 0x64 SWAP1 REVERT JUMPDEST DUP3 MLOAD SWAP1 SWAP2 POP ISZERO PUSH2 0x197D JUMPI POP DUP1 MLOAD SWAP1 PUSH1 0x20 ADD REVERT JUMPDEST PUSH1 0x40 MLOAD SWAP1 PUSH3 0x461BCD PUSH1 0xE5 SHL DUP3 MSTORE DUP2 PUSH1 0x20 DUP1 PUSH1 0x4 DUP4 ADD MSTORE DUP3 MLOAD SWAP3 DUP4 PUSH1 0x24 DUP5 ADD MSTORE PUSH1 0x0 SWAP2 JUMPDEST DUP5 DUP4 LT PUSH2 0x19CF JUMPI POP POP SWAP2 DUP1 PUSH1 0x44 SWAP4 GT PUSH2 0x19C2 JUMPI JUMPDEST PUSH1 0x1F ADD PUSH1 0x1F NOT AND DUP2 ADD SUB ADD SWAP1 REVERT JUMPDEST PUSH1 0x0 DUP4 DUP3 DUP5 ADD ADD MSTORE PUSH2 0x19B4 JUMP JUMPDEST DUP2 DUP4 ADD DUP2 ADD MLOAD DUP7 DUP5 ADD PUSH1 0x44 ADD MSTORE DUP6 SWAP4 POP SWAP2 DUP3 ADD SWAP2 PUSH2 0x19A0 JUMP JUMPDEST SWAP2 SWAP1 DUP3 PUSH1 0x40 SWAP2 SUB SLT PUSH2 0xDE4 JUMPI PUSH1 0x20 DUP3 MLOAD SWAP3 ADD MLOAD SWAP1 JUMP JUMPDEST SWAP1 DUP2 MLOAD DUP1 DUP3 MSTORE PUSH1 0x20 DUP1 DUP1 SWAP4 ADD SWAP4 ADD SWAP2 PUSH1 0x0 JUMPDEST DUP3 DUP2 LT PUSH2 0x1A1E JUMPI POP POP POP POP SWAP1 JUMP JUMPDEST DUP4 MLOAD DUP6 MSTORE SWAP4 DUP2 ADD SWAP4 SWAP3 DUP2 ADD SWAP3 PUSH1 0x1 ADD PUSH2 0x1A10 JUMP JUMPDEST SWAP1 SWAP3 PUSH1 0x40 SWAP2 DUP3 MLOAD SWAP1 PUSH2 0x1A43 DUP3 PUSH2 0x1695 JUMP JUMPDEST DUP4 DUP6 ADD SWAP2 DUP3 MLOAD SWAP7 DUP8 MLOAD ISZERO PUSH2 0x1BF6 JUMPI PUSH1 0x1 PUSH1 0x1 PUSH1 0xA0 SHL SUB SWAP4 DUP5 PUSH1 0x20 DUP1 SWAP11 ADD MLOAD AND DUP4 MSTORE DUP1 MLOAD SWAP3 DUP4 MLOAD SWAP4 PUSH1 0x1 SWAP5 DUP6 LT ISZERO PUSH2 0x1BF6 JUMPI PUSH2 0x1A9C SWAP2 DUP8 DUP11 DUP11 SWAP4 ADD MLOAD AND DUP13 DUP3 ADD MSTORE DUP10 MLOAD SWAP1 PUSH2 0x1A8F DUP3 PUSH2 0x1695 JUMP JUMPDEST DUP8 DUP3 MSTORE DUP6 DUP14 DUP4 ADD MSTORE PUSH2 0x1CE0 JUMP JUMPDEST PUSH1 0x64 NOT TIMESTAMP GT PUSH2 0x1878 JUMPI SWAP7 DUP9 SWAP6 SWAP4 SWAP5 SWAP3 DUP8 MLOAD SWAP9 DUP10 SWAP7 PUSH4 0x15221FD7 PUSH1 0xE1 SHL DUP9 MSTORE PUSH1 0x4 SWAP1 DUP2 DUP10 ADD MSTORE PUSH1 0x24 SWAP5 DUP6 DUP10 ADD MSTORE PUSH1 0xA0 PUSH1 0x44 DUP10 ADD MSTORE DUP9 PUSH2 0x1AE7 DUP6 MLOAD PUSH1 0x60 PUSH1 0xA4 DUP13 ADD MSTORE PUSH2 0x104 DUP12 ADD SWAP1 PUSH2 0x19FE JUMP JUMPDEST SWAP5 ADD MLOAD SWAP4 PUSH1 0xA3 NOT SWAP6 DUP7 DUP11 DUP4 SUB ADD PUSH1 0xC4 DUP12 ADD MSTORE DUP11 DUP1 DUP8 MLOAD SWAP4 DUP5 DUP2 MSTORE ADD SWAP7 ADD SWAP3 PUSH1 0x0 SWAP2 JUMPDEST DUP4 DUP4 LT PUSH2 0x1BAC JUMPI POP POP POP POP POP MLOAD SWAP3 DUP7 DUP4 SUB ADD PUSH1 0xE4 DUP8 ADD MSTORE DUP7 DUP1 DUP5 MLOAD SWAP4 DUP5 DUP2 MSTORE ADD SWAP4 ADD SWAP2 PUSH1 0x0 JUMPDEST DUP2 DUP2 LT PUSH2 0x1B92 JUMPI POP POP POP POP DUP4 SWAP2 DUP3 PUSH1 0x0 SWAP3 ADDRESS PUSH1 0x64 DUP4 ADD MSTORE PUSH1 0x64 TIMESTAMP ADD PUSH1 0x84 DUP4 ADD MSTORE SUB SWAP4 AND GAS CALL SWAP1 DUP2 ISZERO PUSH2 0x1B88 JUMPI POP PUSH2 0x1B64 JUMPI POP POP JUMP JUMPDEST DUP2 RETURNDATASIZE DUP4 GT PUSH2 0x1B81 JUMPI JUMPDEST PUSH2 0x1B77 DUP2 DUP4 PUSH2 0x16B1 JUMP JUMPDEST DUP2 ADD SUB SLT PUSH2 0xDE4 JUMPI JUMP JUMPDEST POP RETURNDATASIZE PUSH2 0x1B6D JUMP JUMPDEST MLOAD RETURNDATASIZE PUSH1 0x0 DUP3 RETURNDATACOPY RETURNDATASIZE SWAP1 REVERT JUMPDEST DUP4 MLOAD DUP7 AND DUP6 MSTORE DUP12 SWAP9 DUP12 SWAP9 POP SWAP5 DUP6 ADD SWAP5 SWAP1 SWAP4 ADD SWAP3 DUP3 ADD PUSH2 0x1B2F JUMP JUMPDEST SWAP3 SWAP6 SWAP9 SWAP11 POP SWAP3 DUP1 SWAP8 SWAP10 SWAP12 POP SWAP6 SWAP1 SWAP4 SWAP6 MLOAD PUSH1 0x3 DUP2 LT ISZERO PUSH2 0x1BE2 JUMPI DUP15 DUP3 DUP2 SWAP3 DUP12 SWAP5 MSTORE ADD SWAP8 ADD SWAP4 ADD DUP14 SWAP11 SWAP9 SWAP7 SWAP6 SWAP4 SWAP3 DUP14 SWAP11 SWAP9 SWAP6 SWAP3 PUSH2 0x1B09 JUMP JUMPDEST DUP3 PUSH1 0x21 DUP6 PUSH4 0x4E487B71 PUSH1 0xE0 SHL PUSH1 0x0 MSTORE MSTORE PUSH1 0x0 REVERT JUMPDEST PUSH4 0x4E487B71 PUSH1 0xE0 SHL PUSH1 0x0 MSTORE PUSH1 0x32 PUSH1 0x4 MSTORE PUSH1 0x24 PUSH1 0x0 REVERT JUMPDEST DUP2 PUSH1 0x1F DUP3 ADD SLT ISZERO PUSH2 0xDE4 JUMPI DUP1 MLOAD SWAP2 PUSH2 0x1C23 DUP4 PUSH2 0x16D3 JUMP JUMPDEST SWAP3 PUSH2 0x1C31 PUSH1 0x40 MLOAD SWAP5 DUP6 PUSH2 0x16B1 JUMP JUMPDEST DUP1 DUP5 MSTORE PUSH1 0x20 SWAP3 DUP4 DUP1 DUP7 ADD SWAP3 PUSH1 0x5 SHL DUP3 ADD ADD SWAP3 DUP4 GT PUSH2 0xDE4 JUMPI DUP4 ADD SWAP1 JUMPDEST DUP3 DUP3 LT PUSH2 0x1C5B JUMPI POP POP POP POP SWAP1 JUMP JUMPDEST DUP2 MLOAD DUP2 MSTORE SWAP1 DUP4 ADD SWAP1 DUP4 ADD PUSH2 0x1C4D JUMP JUMPDEST SWAP1 CALLDATALOAD PUSH1 0x1E NOT DUP3 CALLDATASIZE SUB ADD DUP2 SLT ISZERO PUSH2 0xDE4 JUMPI ADD PUSH1 0x20 DUP2 CALLDATALOAD SWAP2 ADD SWAP2 PUSH8 0xFFFFFFFFFFFFFFFF DUP3 GT PUSH2 0xDE4 JUMPI DUP2 PUSH1 0x5 SHL CALLDATASIZE SUB DUP4 SGT PUSH2 0xDE4 JUMPI JUMP JUMPDEST SWAP1 SWAP2 DUP3 DUP2 MSTORE PUSH32 0x7FFFFFFFFFFFFFFFFFFFFFFFFFFFFFFFFFFFFFFFFFFFFFFFFFFFFFFFFFFFFFF DUP4 GT PUSH2 0xDE4 JUMPI PUSH1 0x20 SWAP3 PUSH1 0x5 SHL DUP1 SWAP3 DUP5 DUP4 ADD CALLDATACOPY ADD ADD PUSH1 0x0 DUP2 MSTORE SWAP1 JUMP JUMPDEST DUP1 MLOAD DUP3 MLOAD PUSH1 0x40 MLOAD PUSH4 0x95EA7B3 PUSH1 0xE0 SHL DUP1 DUP3 MSTORE PUSH1 0x1 PUSH1 0x1 PUSH1 0xA0 SHL SUB DUP8 DUP2 AND PUSH1 0x4 DUP5 ADD MSTORE PUSH1 0x24 DUP4 ADD SWAP4 SWAP1 SWAP4 MSTORE PUSH1 0x20 SWAP7 SWAP3 SWAP6 SWAP2 SWAP5 SWAP1 SWAP4 SWAP2 SWAP3 SWAP2 DUP8 SWAP1 DUP7 SWAP1 PUSH1 0x44 SWAP1 DUP3 SWAP1 PUSH1 0x0 SWAP1 DUP12 AND GAS CALL SWAP5 DUP6 ISZERO PUSH2 0x1DAD JUMPI PUSH2 0x1D72 SWAP7 DUP9 PUSH1 0x0 SWAP4 DUP2 SWAP9 SWAP4 DUP3 SWAP5 PUSH2 0x1DB9 JUMPI JUMPDEST POP ADD MLOAD AND SWAP4 ADD MLOAD SWAP4 PUSH1 0x40 MLOAD SWAP7 DUP8 SWAP6 DUP7 SWAP5 DUP6 SWAP4 DUP5 MSTORE PUSH1 0x4 DUP5 ADD PUSH1 0x20 SWAP1 SWAP4 SWAP3 SWAP2 SWAP4 PUSH1 0x1 PUSH1 0x1 PUSH1 0xA0 SHL SUB PUSH1 0x40 DUP3 ADD SWAP6 AND DUP2 MSTORE ADD MSTORE JUMP JUMPDEST SUB SWAP3 GAS CALL DUP1 ISZERO PUSH2 0x1DAD JUMPI PUSH2 0x1D84 JUMPI POP POP JUMP JUMPDEST DUP2 PUSH2 0x1DA3 SWAP3 SWAP1 RETURNDATASIZE LT PUSH2 0x1DA6 JUMPI JUMPDEST PUSH2 0x1D9B DUP2 DUP4 PUSH2 0x16B1 JUMP JUMPDEST DUP2 ADD SWAP1 PUSH2 0x18F0 JUMP JUMPDEST POP JUMP JUMPDEST POP RETURNDATASIZE PUSH2 0x1D91 JUMP JUMPDEST PUSH1 0x40 MLOAD RETURNDATASIZE PUSH1 0x0 DUP3 RETURNDATACOPY RETURNDATASIZE SWAP1 REVERT JUMPDEST PUSH2 0x1DCF SWAP1 DUP4 RETURNDATASIZE DUP6 GT PUSH2 0x1DA6 JUMPI PUSH2 0x1D9B DUP2 DUP4 PUSH2 0x16B1 JUMP JUMPDEST POP CODESIZE PUSH2 0x1D3F JUMP JUMPDEST SWAP2 SWAP1 SWAP2 PUSH1 0x40 MLOAD SWAP1 PUSH4 0x70A08231 PUSH1 0xE0 SHL SWAP2 DUP3 DUP2 MSTORE ADDRESS PUSH1 0x4 DUP3 ADD MSTORE PUSH1 0x20 SWAP5 DUP6 DUP3 PUSH1 0x24 DUP2 PUSH1 0x1 PUSH1 0x1 PUSH1 0xA0 SHL SUB DUP1 SWAP8 AND GAS STATICCALL SWAP4 DUP5 ISZERO PUSH2 0x1DAD JUMPI DUP7 SWAP3 PUSH1 0x0 SWAP6 PUSH2 0x1E72 JUMPI JUMPDEST POP PUSH1 0x24 SWAP1 PUSH1 0x40 MLOAD SWAP5 DUP6 SWAP4 DUP5 SWAP3 DUP4 MSTORE ADDRESS PUSH1 0x4 DUP5 ADD MSTORE AND GAS STATICCALL SWAP4 DUP5 ISZERO PUSH2 0x1DAD JUMPI PUSH1 0x0 SWAP5 PUSH2 0x1E41 JUMPI JUMPDEST POP POP SWAP2 SWAP1 JUMP JUMPDEST DUP2 DUP2 SWAP6 SWAP3 SWAP4 SWAP6 RETURNDATASIZE DUP4 GT PUSH2 0x1E6B JUMPI JUMPDEST PUSH2 0x1E59 DUP2 DUP4 PUSH2 0x16B1 JUMP JUMPDEST DUP2 ADD SUB SLT PUSH2 0x181 JUMPI POP MLOAD SWAP2 CODESIZE DUP1 PUSH2 0x1E3B JUMP JUMPDEST POP RETURNDATASIZE PUSH2 0x1E4F JUMP JUMPDEST SWAP2 SWAP3 DUP3 DUP2 SWAP7 SWAP3 SWAP7 RETURNDATASIZE DUP4 GT PUSH2 0x1EA0 JUMPI JUMPDEST PUSH2 0x1E8B DUP2 DUP4 PUSH2 0x16B1 JUMP JUMPDEST DUP2 ADD SUB SLT PUSH2 0x181 JUMPI POP MLOAD SWAP3 DUP6 SWAP2 SWAP1 PUSH1 0x24 PUSH2 0x1E15 JUMP JUMPDEST POP RETURNDATASIZE PUSH2 0x1E81 JUMP JUMPDEST SWAP5 SWAP4 SWAP3 SWAP2 SWAP1 PUSH1 0x1 PUSH1 0x1 PUSH1 0xA0 SHL SUB DUP1 PUSH1 0x40 MLOAD SWAP8 PUSH2 0x1EC2 DUP10 PUSH2 0x1695 JUMP JUMPDEST AND SWAP2 DUP3 DUP9 MSTORE AND PUSH2 0x1EEE DUP7 PUSH1 0x20 SWAP9 DUP4 DUP11 DUP3 ADD MSTORE PUSH1 0x40 MLOAD SWAP1 PUSH2 0x1EE1 DUP3 PUSH2 0x1695 JUMP JUMPDEST DUP8 DUP3 MSTORE DUP8 DUP12 DUP4 ADD MSTORE PUSH2 0x1CE0 JUMP JUMPDEST PUSH1 0x40 MLOAD SWAP2 PUSH2 0x100 DUP4 ADD SWAP7 DUP4 DUP9 LT PUSH8 0xFFFFFFFFFFFFFFFF DUP10 GT OR PUSH2 0x3ED JUMPI PUSH1 0x40 SWAP8 DUP9 MSTORE SWAP1 DUP4 MSTORE DUP3 DUP9 ADD SWAP2 DUP3 MSTORE PUSH1 0x2 SWAP4 DUP5 SIGNEXTEND DUP4 DUP9 ADD SWAP1 DUP2 MSTORE ADDRESS PUSH1 0x60 DUP6 ADD SWAP1 DUP2 MSTORE TIMESTAMP PUSH1 0x80 DUP7 ADD SWAP1 DUP2 MSTORE PUSH1 0xA0 DUP7 ADD SWAP8 DUP9 MSTORE PUSH1 0x0 PUSH1 0xC0 DUP8 ADD DUP2 DUP2 MSTORE PUSH1 0x1 PUSH1 0x1 PUSH1 0xA0 SHL SUB SWAP11 DUP12 AND PUSH1 0xE0 DUP10 ADD SWAP1 DUP2 MSTORE SWAP12 MLOAD PUSH4 0x50131C1F PUSH1 0xE1 SHL DUP2 MSTORE SWAP8 MLOAD DUP12 AND PUSH1 0x4 DUP10 ADD MSTORE SWAP6 MLOAD DUP11 AND PUSH1 0x24 DUP9 ADD MSTORE SWAP3 MLOAD SWAP1 SWAP7 SIGNEXTEND PUSH1 0x44 DUP7 ADD MSTORE MLOAD DUP8 AND PUSH1 0x64 DUP6 ADD MSTORE SWAP4 MLOAD PUSH1 0x84 DUP5 ADD MSTORE SWAP4 MLOAD PUSH1 0xA4 DUP4 ADD MSTORE MLOAD PUSH1 0xC4 DUP3 ADD MSTORE SWAP4 MLOAD DUP4 AND PUSH1 0xE4 DUP6 ADD MSTORE DUP5 SWAP3 DUP5 SWAP3 PUSH2 0x104 SWAP3 DUP5 SWAP3 SWAP1 SWAP2 AND GAS CALL DUP1 ISZERO PUSH2 0x1DAD JUMPI PUSH2 0x1B64 JUMPI POP POP JUMP JUMPDEST MLOAD SWAP1 PUSH1 0x1 PUSH1 0x1 PUSH1 0x80 SHL SUB DUP3 AND DUP3 SUB PUSH2 0xDE4 JUMPI JUMP JUMPDEST MLOAD SWAP1 PUSH1 0x1 PUSH1 0x1 PUSH1 0xA0 SHL SUB DUP3 AND DUP3 SUB PUSH2 0xDE4 JUMPI JUMP JUMPDEST MLOAD SWAP1 DUP2 PUSH1 0x2 SIGNEXTEND DUP3 SUB PUSH2 0xDE4 JUMPI JUMP INVALID LOG2 PUSH5 0x6970667358 0x22 SLT KECCAK256 REVERT STATICCALL SHL 0xED SLOAD SWAP8 RETURNDATACOPY CREATE PUSH10 0xBD7946C3A7EAA4758742 0x24 0xF KECCAK256 0xA7 GASLIMIT 0xE2 SWAP6 COINBASE MLOAD 0x2B 0xD7 0x25 REVERT PUSH5 0x736F6C6343 STOP ADDMOD 0xF STOP CALLER "
        },
        "methodIdentifiers": {
          "maxSlippage()": "8c04166f",
          "onERC721Received(address,address,uint256,bytes)": "150b7a02",
          "owner()": "8da5cb5b",
          "rebalancerV2(address,address,uint16,uint256,uint256,uint256[],uint256[],(uint256[],uint8[],address[]),(address,address,uint256,uint256,uint256,uint256,uint256,uint256,uint256,int256[],uint256[],uint256[],address,address,uint256),address)": "1a15fcbc",
          "rebalancerV3(address,address,address,uint256,int24,int24,int24,uint160,address)": "69a09dcc",
          "removeRouter(address)": "6ae0b154",
          "renounceOwnership()": "715018a6",
          "routers(address)": "80dd9a1f",
          "setMaxGasFee(uint256)": "40505440",
          "setMaxSlippage(uint256)": "43f68a49",
          "setRouter(address)": "c0d78655",
          "tranferPositionOwnership(address,uint256,address)": "64aa4896",
          "transferOwnership(address)": "f2fde38b",
          "withdrawTokens(address,uint256,address)": "9bc5c509"
        }
      }
    }
  }
}